:100000000C942A000C9447000C9447000C94470071
:100010000C9447000C9447000C9447000C94470044
:100020000C9447000C944F000C9447000C9447002C
:100030000C9447000C9447000C9447000C94470024
:100040000C9447000C9447000C9447000C94470014
:100050000C94470011241FBECFE5D8E0DEBFCDBF12
:1000600012E0A0E6B0E0E0EEF4E002C005900D92F0
:10007000A434B107D9F712E0A4E4B2E001C01D92A4
:10008000A235B107E1F70E947E000C946E020C9439
:10009000000085E085BF8BB7806C8BBF08951F92F1
:1000A0000F920FB60F9211248F939F93AF93BF932C
:1000B00080914E0290914F02A0915002B091510256
:1000C0000196A11DB11D80934E0290934F02A09303
:1000D0005002B0935102BF91AF919F918F910F90B9
:1000E0000FBE0F901F90189589B7846089BF8FB598
:1000F0008F708FBD8EB581608EBD08951F930E9455
:10010000A2000E94F701789484E50E94AB0185E685
:100110000E94AB0183E70E94AB0184E70E94AB0120
:1001200080E062E00E94420280E690E00E94580275
:100130008D9A10E25F9B02C00E94220180B381274A
:1001400082BBF8CF10BC88E089B988E18AB980B554
:10015000866880BDEDE6F0E004C05D9BFECF8CB903
:10016000319680818823C9F7E8EAF0E004C05D9BFE
:10017000FECF8CB9319680818823C9F7E3EEF0E099
:1001800004C05D9BFECF8CB9319680818823C9F76E
:10019000EEE1F1E004C05D9BFECF8CB93196808129
:1001A0008823C9F7EDE6F0E004C05D9BFECF8CB973
:1001B000319680818823C9F7E9E5F1E004C05D9BB1
:1001C000FECF8CB9319680818823C9F708955D9B55
:1001D000FECF8CB980E090E00895FC0104C05D9BE7
:1001E000FECF8CB9319680818823C9F708955F9B33
:1001F000FECF8CB10895582F292F5F9BFECF4CB1B5
:100200004A30E1F04D30D1F0852F922F9C01F90159
:1002100070E06150704008C041935F9BFECF4CB1CD
:100220004A3041F04D3031F08E2F851B90E086171B
:10023000970794F3108220E030E002C021E030E024
:10024000C90108950F931F93DF93CF93CDB7DEB706
:10025000A2970FB6F894DEBF0FBECDBF8E010F5F21
:100260001F4FC80161E170E00E94FB00892B09F07B
:1002700067C0C8016BE571E00E946502009719F440
:100280008EE591E05BC0C80167E771E00E946502FE
:10029000009721F48E9A80B390E40AC0C8016CE7FD
:1002A00071E00E946502009739F48D9A80B390E264
:1002B000892782BBC80142C0C80161E871E00E9481
:1002C0006502009799F487E891E00E94ED008E01A5
:1002D0000E5E1F4FC80161E170E00E94FB00892B98
:1002E000C9F780E090E061E070E019C0C80160E902
:1002F00071E00E9465020097C1F487E891E00E94D6
:10030000ED008E010E5E1F4FC80161E170E00E949A
:10031000FB00892BC9F780E090E062E070E00E946A
:100320004202C8010E9458020BC0C80166E971E090
:100330000E946502009721F48BE991E00E94ED0094
:10034000A2960FB6F894DEBF0FBECDBFCF91DF915E
:100350001F910F910895949A9BB3907F9BBB2BB3F1
:10036000982F92959F70922B9BBB979A25E0922F86
:100370009A95F1F797989BB3907F9BBB9BB38F7037
:10038000982B9BBB979A2A95F1F7979880EE8A95C0
:10039000F1F7089594989BB3907F9BBB2BB3982F54
:1003A00092959F70922B9BBB979A25E0922F9A95DE
:1003B000F1F797989BB3907F9BBB9BB38F70982B63
:1003C0009BBB979A2A95F1F7979880EE8A95F1F75B
:1003D0000895979A85E08A95F1F79798089581E0B6
:1003E0000E94CA0180E29EE40197F1F708958AB362
:1003F0008F608ABB8C9A8F9A80E69AEE0197F1F70C
:100400008BB3807F8BBB8BB383608BBB9498979AA5
:1004100095E0892F8A95F1F79798E0E2FEE431970D
:10042000F1F7979A892F8A95F1F7979820EA3FE09C
:10043000F9013197F1F7979A892F8A95F1F79798F3
:10044000F9013197F1F78BB3807F8BBBD99A979ADB
:100450009A95F1F79798C9010197F1F788E20E9400
:10046000CA018CE00E94CA0186E00E94CA010E9473
:10047000EF01089582E00E94CA0180E29EE40197A4
:10048000F1F70895623061F0633018F4613079F467
:1004900005C0633039F0643051F406C0805805C09F
:1004A000805403C0805701C080530E94CA01089540
:1004B000CF93DF93EC0103C00E94AB0121968881AA
:1004C0008823D1F7DF91CF910895FB01DC018D9155
:1004D000019080190110D9F3990B0895F894FFCF7A
:1004E00048656C6C6F20576F726C6421000A23237F
:1004F00023232323232323232323232323232323CC
:1005000023232323232323232323232323232323BB
:1005100023232323232323232323232323232323AB
:1005200023232323232323000A232057656C636F8F
:100530006D6520746F204156522054657374626F4C
:100540006172642C206E6F74206D75636820696D14
:10055000706C656D656E74656420736F2066617282
:100560002023000A2320666F722061206C69737457
:10057000206F6620636F6D6D616E64732074797097
:10058000652048454C5020616E642070726573731D
:100590002052455455524E202020202023000A236B
:1005A000202020202020202020202020202020204B
:1005B0002020202020627920546F62692028616EFB
:1005C00064205061756C29202020202020202020CC
:1005D0002020202020202023000A005447005447D8
:1005E000204156522054657374626F6172642076A4
:1005F000302E302E310A004C454431004C454432F7
:10060000004C4344573100547970652E2E2E0A0059
:100610004C434457320048454C5000417661696C68
:1006200061626C6520636F6D6D616E64733A0A2060
:100630005447202D207072696E742044657669637A
:100640006520616E642056657273696F6E20496E15
:10065000666F0A204C454478202D205475726E2018
:100660006F6E2F6F6666204C4544206E756D626517
:100670007220780A0909094C43445778202D2050EC
:10068000726F6D707420666F722054657874207478
:100690006F207772697465206F6E204C696E6520DB
:1006A00078206F6E204C43440A0A2048454C502065
:1006B0002D205072696E74207468697320496E66CB
:0406C0006F0A0000BD
:00000001FF
