:100000000C942A000C9447000C9447000C94470071
:100010000C94AB000C9447000C9447000C944700E0
:100020000C9447000C9447000C94DB020C9447009E
:100030000C9447000C9447000C9447000C94470024
:100040000C9449000C9447000C9447000C94470012
:100050000C94470011241FBECFE5D8E0DEBFCDBF12
:1000600012E0A0E6B0E0E6EEF3E102C005900D92EA
:10007000AC3BB107D9F712E0ACEBB2E001C01D9286
:10008000AC3DB107E1F70E94F4030C94F1090C9424
:1000900000001F920F920FB60F9211242F933F93DF
:1000A0004F935F938F939F93AF93BF93389B23C0DE
:1000B0008091C6029091C702A091C802B091C90276
:1000C00024B135B140E050E0280F391F4A1F5B1FB3
:1000D0002093C6023093C7024093C8025093C902CE
:1000E0008091CA029091CB0201969093CB028093AB
:1000F000CA02389822C08091BE029091BF02A0919E
:10010000C002B091C10224B135B140E050E0280FE7
:10011000391F4A1F5B1F2093BE023093BF024093DA
:10012000C0025093C1028091C2029091C302019615
:100130009093C3028093C202389A369ABF91AF91CE
:100140009F918F915F914F913F912F910F900FBE93
:100150000F901F9018951F920F920FB60F921124B7
:10016000EF92FF920F931F932F933F934F935F93C1
:100170006F937F938F939F93AF93BF93EF93FF936F
:100180008091C2029091C302892B11F16091BE024D
:100190007091BF028091C0029091C1022091C20271
:1001A0003091C302442737FD4095542F0E947D09AA
:1001B0003093BD022093BC021092BE021092BF0287
:1001C0001092C0021092C1021092C3021092C20299
:1001D0008091CA029091CB02892B11F16091C602E5
:1001E0007091C7028091C8029091C9022091CA0201
:1001F0003091CB02442737FD4095542F0E947D0952
:100200003093C5022093C4021092C6021092C70216
:100210001092C8021092C9021092CB021092CA0228
:100220006091BC027091BD02882777FD8095982F60
:1002300024EE3CE040E050E00E945E09E090CE02F7
:10024000F090CF020091D0021091D1022FEF33E055
:1002500040E050E00E947D092E193F09400B510BF0
:10026000C90137FF03C0909581959F4F029764F1B4
:1002700022303105410551056CF08091CC029091FE
:10028000CD021816190634F48091CC029091CD025B
:1002900001970CC08091CC029091CD028C5E93406E
:1002A0009CF48091CC029091CD0201969093CD0266
:1002B0008093CC0288BB2BB380709370892F990FE9
:1002C000990B2C7F282B2BBB1092D7021092D602B1
:1002D000FF91EF91BF91AF919F918F917F916F911E
:1002E0005F914F913F912F911F910F91FF90EF9050
:1002F0000F900FBE0F901F9018959093CD02809392
:10030000CC0288BB807093702BB3892F990F990B07
:100310002C7F282B2BBB089587B1846487B986B1C5
:100320008F6886B98FE085BD8FEF83BD89B7806800
:1003300089BF369A08952091BC023091BD02C9014F
:1003400008952091C4023091C502C90108956091B9
:10035000BC027091BD02882777FD8095982F24EE0E
:100360003CE040E050E00E945E092FEF33E040E0C7
:1003700050E00E947D09CA01B90108956091C4024C
:100380007091C502882777FD8095982F28EC30E082
:1003900040E050E00E945E0928EE33E040E050E08B
:1003A0000E947D09CA01B90108956093CE0270933D
:1003B000CF028093D0029093D10208952091CE0273
:1003C0003091CF024091D0025091D102B901CA01BF
:1003D00008956093D2027093D3028093D4029093D5
:1003E000D50208952091D2023091D3024091D402D7
:1003F0005091D502B901CA0108950F931F93DF935D
:10040000CF93CDB7DEB7A4970FB6F894DEBF0FBE7B
:10041000CDBF8E010D5F1F4FC80161E10E946706CD
:10042000892B09F09BC0C80160E670E00E94AC0611
:10043000009719F483E690E08FC0C8016CE770E084
:100440000E94AC06009731F48E9A80B390E489271D
:1004500082BB5CC0C80161E870E00E94AC060097F6
:1004600029F4D79A89B380588BBB50C0C80165E87E
:1004700070E00E94AC06009781F48BE890E00E9447
:1004800059068E010C5E1F4FC80161E10E9467068C
:10049000892BD1F780E061E016C0C80164E970E003
:1004A0000E94AC060097A9F48BE890E00E945906E0
:1004B0008E010C5E1F4FC80161E10E946706892B07
:1004C000D1F780E062E00E94D103C8010E94E703F7
:1004D00045C0C8016AE970E00E94AC06009719F4B3
:1004E0000E94860313C0C80162EA70E00E94AC0655
:1004F000009719F40E94BB0509C0C80166EA70E0C4
:100500000E94AC06009721F40E94C405C80124C0D3
:10051000C8016AEA70E00E94AC06009799F48CEA80
:1005200090E00E9459068E010F5F1F4FC80162E0E4
:100530000E946706892BD1F7C8010E948E060E948F
:10054000FC050CC0CE01039663EC70E00E94AC0683
:10055000009721F488EC90E00E945906A4960FB60B
:10056000F894DEBF0FBECDBFCF91DF911F910F91E9
:1005700008959E9B02C023E001C020E0989B02C02A
:1005800093E001C090E09F9B02C081E02827999BE7
:1005900002C081E098272093D8029093D90210924C
:1005A000DB021092DA028BE083BF8AEF8CBF89B73F
:1005B000826089BF08951F920F920FB60F92112487
:1005C0002F933F934F938F939F939E9B02C033E053
:1005D00001C030E0989B02C043E001C040E09F9B17
:1005E00002C081E03827999B02C081E048279091A2
:1005F000D802931B2091D902241B90FF09C030938D
:10060000D8028091DB0281509270890F8093DB02C7
:1006100020FF09C04093D9028091DA0281502270F4
:10062000820F8093DA029F918F914F913F912F918A
:100630000F900FBE0F901F901895F8948091DB02D9
:100640001092DB0278940895F8948091DA02982F42
:1006500091709093DA02789485950895F89480913A
:10066000DB029091DB0293709093DB027894859586
:1006700085950895929A92B39F7092BB22B3982F5A
:10068000907F922B92BB939A2AE0922F9A95F1F742
:10069000939892B39F7092BB92B38295807F982B70
:1006A00092BB939A2A95F1F7939880EE8A95F1F789
:1006B0000895929892B39F7092BB22B3982F907F27
:1006C000922B92BB939A2AE0922F9A95F1F79398E6
:1006D00092B39F7092BB92B38295807F982B92BB0E
:1006E000939A2A95F1F7939880EE8A95F1F70895F9
:1006F000939A8AE08A95F1F79398089581E00E9491
:10070000590380E29EE40197F1F7089581B3806F69
:1007100081BB8B9A8A9A80E69AEE0197F1F782B3B1
:100720008F7082BB82B3806382BB9298939A9AE067
:10073000892F8A95F1F79398E0E2FEE43197F1F77B
:10074000939A892F8A95F1F7939820EA3FE0F9016F
:100750003197F1F7939A892F8A95F1F79398F901D8
:100760003197F1F782B38F7082BB959A939A9A95DD
:10077000F1F79398C9010197F1F788E20E945903B4
:100780008CE00E94590386E00E9459030E947E0378
:10079000089582E00E94590380E29EE40197F1F7F8
:1007A0000895623061F0633018F4613079F405C067
:1007B000633039F0643051F406C0805805C080546D
:1007C00003C0805701C080530E9459030895CF93FE
:1007D000DF93EC0103C00E943A03219688818823AD
:1007E000D1F7DF91CF9108952F923F924F925F9270
:1007F0006F927F928F929F92AF92BF92CF92DF9231
:10080000EF92FF920F931F93DF93CF93CDB7DEB795
:10081000AC970FB6F894DEBF0FBECDBF0E940E0698
:100820000E9486030E948C018FEF87BB8AB383608E
:100830008ABB84B38C7384BB85B3836C85BB0E94F5
:10084000B9028AE791E00E94E7038AB3806C8ABB11
:100850008BB3806C8BBB789419A61AA61BA61CA61A
:100860004424552432015F9B02C00E94FD010E9476
:100870002E03082F112707FD10950E942403282E10
:10088000332427FC30940115110509F4D0C000D0A1
:1008900000D000D0EDB7FEB7319621E030E02C0F4C
:1008A0003D1FADB7BEB712963C932E93119740E80B
:1008B00051E053834283158304830E94BD068DB7A4
:1008C0009EB706960FB6F8949EBF0FBE8DBFCE01A1
:1008D00001960E945906023011051CF004E610E052
:1008E00006C09FEF0F3F190714F40CE91FEFC80172
:1008F000AA2797FDA095BA2F29A53AA54BA55CA5D7
:10090000280F391F4A1F5B1F29A73AA74BA75CA7CF
:1009100057FF05C019A61AA61BA61CA611C089A5BB
:100920009AA5ABA5BCA5855E9C40A040B04044F014
:1009300024EE3CE040E050E029A73AA74BA75CA793
:1009400069A57AA58BA59CA50E94D5010E94DE0110
:100950006B017C010E94A7014B015C014DB75EB7A2
:10096000445150400FB6F8945EBF0FBE4DBF0DB757
:100970001EB70F5F1F4FE1E0F0E0EC0FFD1FADB7BA
:10098000BEB71296FC93EE931197EAE8F1E0D80116
:100990001396FC93EE931297C701B60124E630E05C
:1009A00040E050E00E947D09D80114962D933D93BC
:1009B0004D935C931797C701B60124E630E040E001
:1009C00050E00E947D09F8016087718782879387D4
:1009D000C501B40124E630E040E050E00E947D090A
:1009E000D8011C962D933D934D935C931F97C501A1
:1009F000B40124E630E040E050E00E947D09F801B7
:100A0000608B718B828B938B0E94BD062DB73EB796
:100A10002C5E3F4F0FB6F8943EBF0FBE2DBF80E057
:100A200061E00E94D103CE0101960E94E7032114E8
:100A3000310409F418CF32E02316310424F024E6FF
:100A4000222E312C09C04FEF24164FEF340624F428
:100A50009CE9292E9FEF392EC101AA2797FDA09569
:100A6000BA2F480E591E6A1E7B1E77FE04C044240E
:100A7000552432010BC059EC451651046104710430
:100A80002CF088EC482E512C612C712CC301B20142
:100A90000E94E9010E94F2016B017C010E94BE01EB
:100AA0004B015C018DB79EB744970FB6F8949EBF7B
:100AB0000FBE8DBF0DB71EB70F5F1F4FE5E1F0E012
:100AC000EC0FFD1FADB7BEB71296FC93EE931197D6
:100AD000E7EAF1E0D8011396FC93EE931297C70171
:100AE000B60124E630E040E050E00E947D09D801E4
:100AF00014962D933D934D935C931797C701B601C0
:100B000024E630E040E050E00E947D09F801608773
:100B1000718782879387C501B40124E630E040E005
:100B200050E00E947D09D8011C962D933D934D9372
:100B30005C931F97C501B40124E630E040E050E02B
:100B40000E947D09F801608B718B828B938B0E94D0
:100B5000BD062DB73EB72C5E3F4F0FB6F8943EBF93
:100B60000FBE2DBF80E062E00E94D103CE0145960A
:100B70000E94E70378CEDB9A85E0982F9A95F1F7EB
:100B8000DB988A95F1F70895DA9A85E0982F9A957F
:100B9000F1F7DA988A95F1F7089580FD02C0D898A8
:100BA00001C0D89ADB9A85E0982F9A95F1F7DB98E7
:100BB0008A95F1F7089520E030E055E080FD02C00D
:100BC000D89801C0D89ADB9A45E0952F9A95F1F70D
:100BD000DB98952F9A95F1F72F5F3F4F283031051D
:100BE00011F08695EBCFDA9A842F8A95F1F7DA988F
:100BF000842F8A95F1F70895FC018A30910528F435
:100C0000EC53FE4F80810E94DB050895D39AD09A61
:100C1000D29AD19AD49AD998DC9A089510BC88E0D7
:100C200089B988E18AB980B5866880BDEEECF1E0CB
:100C300004C05D9BFECF8CB9319680818823C9F7B3
:100C4000E9E0F2E004C05D9BFECF8CB93196808173
:100C50008823C9F7E4E4F2E004C05D9BFECF8CB9C1
:100C6000319680818823C9F7EFE7F2E004C05D9BED
:100C7000FECF8CB9319680818823C9F7EEECF1E084
:100C800004C05D9BFECF8CB9319680818823C9F763
:100C9000EAEBF2E004C05D9BFECF8CB93196808117
:100CA0008823C9F708955D9BFECF8CB980E090E062
:100CB0000895FC0104C05D9BFECF8CB93196808104
:100CC0008823C9F708955F9BFECF8CB10895582FF4
:100CD000292F5F9BFECF4CB14A30E1F04D30D1F06F
:100CE000852F922F9C01F90170E06150704008C07F
:100CF00041935F9BFECF4CB14A3041F04D3031F013
:100D00008E2F851B90E08617970794F3108220E0C2
:100D100030E002C021E030E0C9010895FC018827DD
:100D20009927E89421912032E9F3293010F02E30F0
:100D3000C8F32B3241F02D3239F4689404C00E947C
:100D4000B506820F911D219120532A30C0F31EF465
:100D5000909581959F4F0895FB01DC018D91019045
:100D600080190110D9F3990B08957AE0979F902D7F
:100D7000879F802D910D11240895AEE0B0E0E3EC43
:100D8000F6E00C94C8090D891E8986E08C831A83CD
:100D900009838FEF9FE79E838D839E01275E3F4FE0
:100DA000CE0101966F89788DA9010E94E1062F81FD
:100DB0003885020F131FF80110822E96E4E00C9480
:100DC000E409ABE0B0E0E7EEF6E00C94BA093C01D0
:100DD0002B015A01FC0117821682838181FD03C019
:100DE0006FEF7FEFC6C19AE0892E1E010894211C87
:100DF000311CF3012381F20123FD859123FF8191B1
:100E00002F01882309F4B2C1853239F423FD85917D
:100E100023FF81912F01853229F490E0B3010E94D4
:100E2000D408E7CF982FFF24EE249924FFE1FF1583
:100E3000D0F09B3269F09C3228F4903259F0933212
:100E400091F40EC09D3249F0903369F441E024C022
:100E500052E0F52A84E0F82A28C098E0F92A25C053
:100E6000E0E1FE2A22C0F7FC29C0892F80538A3096
:100E700070F4F6FE05C0989C902C1124980E15C0B5
:100E8000E89CE02C1124E80EF0E2FF2A0EC09E320E
:100E900029F4F6FC6BC140E4F42A07C09C3619F42F
:100EA00050E8F52A02C0983649F4F20123FD9591E5
:100EB00023FF91912F01992309F0B8CF892F8554F1
:100EC000833018F08052833038F444E050E0A40EB0
:100ED000B51E5FE359830FC0933631F0933779F035
:100EE000933509F056C020C0F5018081898342E026
:100EF00050E0A40EB51E610101E010E012C0F50142
:100F0000C080D180F6FC03C06FEF7FEF02C0692D77
:100F100070E042E050E0A40EB51EC6010E94C90870
:100F20008C015FE7F52214C0F501C080D180F6FC8A
:100F300003C06FEF7FEF02C0692D70E042E050E028
:100F4000A40EB51EC6010E94BE088C0150E8F52A09
:100F5000F3FE07C01AC080E290E0B3010E94D408FB
:100F6000EA948E2D90E008171907A8F30EC0F60139
:100F7000F7FC8591F7FE81916F0190E0B3010E942B
:100F8000D408E110EA94015010400115110579F7D9
:100F9000EAC0943611F0993669F5F7FE08C0F501FC
:100FA000208131814281538184E090E00AC0F501C3
:100FB000808191819C01442737FD4095542F82E028
:100FC00090E0A80EB91E9FE6F92257FF09C0509580
:100FD0004095309521953F4F4F4F5F4FE0E8FE2AF7
:100FE000CA01B901A1012AE030E00E940009D82E0F
:100FF000D21840C0953729F41F2D1F7E2AE030E01B
:101000001DC01F2D197F9F3661F0903720F4983551
:1010100009F0ACC00FC0903739F0983709F0A6C07E
:1010200004C028E030E00AC0106114FD146020E123
:1010300030E004C014FD166020E132E017FF08C064
:10104000F501608171818281938144E050E008C0A4
:10105000F50180819181BC0180E090E042E050E0A8
:10106000A40EB51EA1010E940009D82ED2188FE748
:10107000F82EF122F6FE0BC05EEFF522D91438F4FB
:10108000F4FE07C0F2FC05C08FEEF82202C01D2D51
:1010900001C0192DF4FE0DC0FE01ED0DF11D808182
:1010A000803319F499EEF92208C01F5FF2FE05C0E3
:1010B00003C08F2D867809F01F5F0F2DF3FC14C03D
:1010C000F0FE0FC01E1510F09D2C0BC09D2C9E0C29
:1010D000911A1E2D06C080E290E0B3010E94D40850
:1010E0001F5F1E15C0F304C01E1510F4E11A01C0E5
:1010F000EE2404FF0FC080E390E0B3010E94D40807
:1011000002FF1DC001FD03C088E790E00EC088E526
:1011100090E00BC0802F867891F001FF02C08BE237
:1011200001C080E2F7FC8DE290E0B3010E94D40898
:1011300006C080E390E0B3010E94D4089A94D914C9
:10114000C0F3DA94F101ED0DF11D808190E0B3015F
:101150000E94D408DD20A9F706C080E290E0B30128
:101160000E94D408EA94EE20C1F743CEF3016681D1
:101170007781CB012B96E2E10C94D609FC01059016
:10118000615070400110D8F7809590958E0F9F1F89
:101190000895FC016150704001900110D8F78095CE
:1011A00090958E0F9F1F08950F931F93CF93DF93FA
:1011B0008C01EB018B8181FF1BC082FF0DC02E8152
:1011C0003F818C819D812817390764F4E881F9817A
:1011D0000193F983E88306C0E885F985802F099596
:1011E000892B31F48E819F8101969F838E8302C06B
:1011F0000FEF1FEFC801DF91CF911F910F9108955D
:10120000FA01AA27283051F1203181F1E8946F9337
:101210006E7F6E5F7F4F8F4F9F4FAF4FB1E03ED0DD
:10122000B4E03CD0670F781F891F9A1FA11D680F7B
:10123000791F8A1F911DA11D6A0F711D811D911DAE
:10124000A11D20D009F468943F912AE0269F112423
:101250003019305D3193DEF6CF010895462F477087
:10126000405D4193B3E00FD0C9F7F6CF462F4F70E2
:10127000405D4A3318F0495D31FD4052419302D040
:10128000A9F7EACFB4E0A6959795879577956795E6
:10129000BA95C9F700976105710508959B01AC01E6
:1012A0000A2E06945795479537952795BA95C9F70D
:1012B000620F731F841F951FA01D0895629FD001A8
:1012C000739FF001829FE00DF11D649FE00DF11D01
:1012D000929FF00D839FF00D749FF00D659FF00DB0
:1012E0009927729FB00DE11DF91F639FB00DE11D9D
:1012F000F91FBD01CF011124089597FB092E052682
:101300000ED057FD04D014D00AD0001C38F45095EC
:101310004095309521953F4F4F4F5F4F0895F6F719
:1013200090958095709561957F4F8F4F9F4F089551
:10133000A1E21A2EAA1BBB1BFD010DC0AA1FBB1FD9
:10134000EE1FFF1FA217B307E407F50720F0A21B4B
:10135000B30BE40BF50B661F771F881F991F1A94B8
:1013600069F760957095809590959B01AC01BD01E2
:10137000CF0108952F923F924F925F926F927F928A
:101380008F929F92AF92BF92CF92DF92EF92FF9295
:101390000F931F93CF93DF93CDB7DEB7CA1BDB0B41
:1013A0000FB6F894DEBF0FBECDBF09942A883988E6
:1013B00048885F846E847D848C849B84AA84B984ED
:1013C000C884DF80EE80FD800C811B81AA81B981F9
:1013D000CE0FD11D0FB6F894DEBF0FBECDBFED010D
:0613E0000895F894FFCF10
:1013E6005447005447204156522054657374626F27
:1013F6006172642076302E302E310A004C4544311D
:1014060000464554004C4344573100547970652ECC
:101416002E2E0A004C43445732004C4344494E4951
:101426005400434C4B0053545200370054797065B6
:101436002061206E756D626572203C2031302E2E43
:101446002E0A0048454C5000417661696C61626C19
:101456006520636F6D6D616E64733A0A2054472090
:101466002D207072696E742044657669636520610B
:101476006E642056657273696F6E20496E666F0AD8
:10148600204C454478202D205475726E206F6E2FA7
:101496006F6666204C4544206E756D6265722078D5
:1014A6000A0909094C43445778202D2050726F6D64
:1014B600707420666F72205465787420746F20777C
:1014C60072697465206F6E204C696E652078206F96
:1014D6006E204C43440A0A2048454C50202D20508B
:1014E60072696E74207468697320496E666F0A00AB
:1014F6003F055E4F656B7B0D7F6F68616C6C6F009F
:1015060074657374202569200A00553A20256C6994
:101516002C256C695B256C692C256C695D20562031
:1015260020202020202000493A20256C692C256C9B
:10153600695B256C692C256C695D20412020202083
:10154600202020003F055E4F656B7B0D7F6F0A23D1
:101556002323232323232323232323232323232355
:101566002323232323232323232323232323232345
:101576002323232323232323232323232323232335
:101586002323232323232323000A23202020202070
:1015960020202044696769616C20726567756C61FB
:1015A60074656420506F776572737570706C7920FE
:1015B60030202D203330562032412020202020207C
:1015C600202023000A2320202020202020205472BF
:1015D600792048454C5020666F72206120636F6DFC
:1015E6006D616E64207365742020202020202020E9
:1015F6002020202020202020202020202023000A18
:10160600232020202020202020627920546F626928
:101616006173204772757373656E6D6579657220A7
:1016260020202020202020202020202020202020B4
:0C163600202020202020202023000A007B
:00000001FF
