:100000000C9430000C944D000C944D000C944D0059
:100010000C944D000C944D000C944D000C944D002C
:100020000C944D000C944F000C944D000C944D001A
:100030000C944D000C9424050C944D000C944D0030
:100040000C944D000C944D000C944D000C944D00FC
:100050000C944D006364696E6F70737578585B0023
:1000600011241FBECFE5D8E0DEBFCDBF17E0A0E66C
:10007000B0E0EAEDF8E202C005900D92A837B107B2
:10008000D9F717E0A8E7B7E001C01D92A03EB1077D
:10009000E1F70E9463010C946B140C9400001F9212
:1000A0000F920FB60F9211248F939F938091BC07EC
:1000B0009091BD0701969093BD078093BC079F91D7
:1000C0008F910F900FBE0F901F90189589B7846085
:1000D00089BF8FB58F708FBD08958EB581608EBD3D
:1000E00008958EB58E7F8EBD1DBC1CBC1092BD07C1
:1000F0001092BC0708952F923F924F925F926F9299
:100100007F928F929F92AF92BF92CF92DF92EF92A7
:10011000FF920F931F938CB59DB50091BC07109172
:10012000BD0760E170E00E94D513CB01990F880BE9
:10013000982F962E772E682E582E482E382E282E41
:10014000882EF801FF0FEE0BFE2F98014E2F5E2F29
:100150006E2F7E2F8E2F9E2FA0ECAA2EFDEBBF2E92
:10016000E0E3CE2E02E4D02E1FE0E12EFF2400E0DB
:1001700010E00E946406AA24B4E2BB2EA4EFCA2EAB
:10018000DD24EE240E945F07E92E290DE1E0291508
:1001900008F0E0E0370DF1E0371508F0F0E0FE2E52
:1001A000F30EE1E0F31608F0E0E0FE2B460DA1E0CF
:1001B000461508F0A0E00F2F040FE1E0041708F047
:1001C000E0E0AE2B550DF1E0551508F0F0E01A2FE8
:1001D000150FE1E0151708F0E0E0FE2B640DA1E03B
:1001E000641508F0A0E0BF2FB60FE1E0B61708F0E5
:1001F000E0E0AE2B730DF1E0731508F0F0E0A70F0F
:10020000E1E0A71708F0E0E0FE2B820D91E08215F7
:1002100008F090E0F80FE1E0F81708F0E0E09E2B1E
:100220008E0C3F2DA8016B2F7A2F8F2F980DF8EE93
:10023000AF2EE3E0BE2ECC24DD24EE24FF2400E02C
:1002400010E00E945F07952FB901842F1F910F9135
:10025000FF90EF90DF90CF90BF90AF909F908F90E6
:100260007F906F905F904F903F902F9008958BB349
:10027000887F8BBB3BB39091BB07292F21702295C0
:10028000207F892F880F880F8870822B832B947092
:10029000982B9BBB08953BB380919C07982F929518
:1002A000990F9074282F279522272795292B880F9F
:1002B000880F880F8072822B809583238BBB8BB332
:1002C00087608BBB08952F923F924F925F926F92FF
:1002D0007F928F929F92AF92BF92CF92DF92EF92D6
:1002E000FF920F931F93DF93CF9300D0CDB7DEB76C
:1002F00080919C07887F80939C071092BD07109285
:10030000BC078091BB07887F8093BB071092790759
:100310001092780781E090E090939B0780939A0772
:100320008AE090E09093BF078093BE078FEF9FEF26
:1003300090939907809398070E944B0680E690E07F
:100340000E945A068BE990E00E945A0686ED90E0E2
:100350000E945A0681E191E00E945A060E947005AF
:1003600089B7846089BF8FB58F708FBD78945DE940
:10037000452E57E0552E42ED242E43E0342E809139
:10038000780790917907892B09F47DC080919A07AD
:1003900090919B0782309105B9F18330910509F462
:1003A00050C0019709F06FC080919807909199070C
:1003B0000097F9F0019790939907809398073BB3C2
:1003C00080919C07982F9295990F9074282F2795CC
:1003D00022272795292B880F880F880F8072822B60
:1003E000809583238BBB8EB581608EBD82E090E0CB
:1003F00046C08FEF9FEF90939907809398071092D4
:100400007907109278073FC00E947B006A3071051F
:1004100081059105C0F18EB58E7F8EBD1DBC1CBCC3
:100420001092BD071092BC078BB3806E8BBB83E02C
:1004300090E090939B0780939A078EB581608EBD64
:1004400022C00E947B008B019C016091BE077091CD
:10045000BF0780E197E20E94C11380E090E0061799
:1004600017072807390778F08EB58E7F8EBD1DBC23
:100470001CBC1092BD071092BC0781E090E09093E5
:100480009B0780939A078091C0079091C107892BA1
:1004900009F475CF3AE7E32E37E0F32E02EC17E0CC
:1004A000CC24DD243BC02DB73EB7285030400FB6DA
:1004B000F8943EBF0FBE2DBFEDB7FEB73196ADB776
:1004C000BEB712961C930E9311972DE431E033833F
:1004D0002283F582E48281E090E08C0F9D1F978358
:1004E00086830E942E0E0894C11CD11CADB7BEB7E6
:1004F00018960FB6F894BEBF0FBEADBF019721F49A
:1005000089819A81080F191FEEE1F0E0EE0EFF1EBF
:10051000D8018C918B3339F40F5F1F4FF801808124
:10052000882309F0C0CF8DE00E9454068AE797E047
:1005300067E571E00E94F20D8C0182EC97E06CE5BA
:1005400071E00E94F20D012B11F0009759F58EE534
:1005500091E00E945A0686E791E00E945A0682EADC
:1005600091E00E945A0689ED91E00E945A0682E1CC
:1005700092E00E945A0689E492E00E945A068FE7B0
:1005800092E00E945A0687EB92E00E945A068CEE97
:1005900092E00E945A068AE293E00E945A068BE794
:1005A00093E042C28AE797E06EEC73E00E94F20D9E
:1005B000009799F400D000D000D0EDB7FEB7319687
:1005C000ADB7BEB712965C924E92119733822282DB
:1005D0002BEE33E03583248363C08AE797E06BEF2B
:1005E00073E00E94F20D009739F481E090E090935F
:1005F00079078093780722C08AE797E066E074E085
:100600000E94F20D0097E9F48EB58E7F8EBD1DBC61
:100610001CBC1092BD071092BC0710927907109273
:10062000780781E090E090939B0780939A0710925F
:100630009907109298078BB3806E8BBB81E094E092
:10064000F3C18AE797E06BE074E00E94F20D009737
:1006500069F592E0C916D10449F488E997E00E944F
:10066000D40D9093BF078093BE0704C084E194E04B
:100670000E945A0600D000D000D0EDB7FEB73196E8
:10068000ADB7BEB712965C924E92119721E434E05A
:10069000338322838091BE079091BF079583848323
:1006A0000E940A0E8DB79EB7069694C18AE797E01E
:1006B0006DE574E00E94F20D009709F04EC094E0E1
:1006C000C916D10429F588E997E00E94D40D8170FC
:1006D00090919C079E7F982B90939C0786EB97E0C8
:1006E0000E94D40D8170880F90919C079D7F982B5C
:1006F00090939C0784ED97E00E94D40D8170880F41
:10070000880F90919C079B7F982B90939C0704C027
:1007100085E694E00E945A06ADB7BEB71A970FB6A9
:10072000F894BEBF0FBEADBFEDB7FEB731961296BF
:100730005C924E92119721EA34E0338322838091B8
:100740009C0781708483158280919C0786958170B7
:100750008683178280919C0756C08AE797E066ECF3
:1007600074E00E94F20D009709F058C094E0C91699
:10077000D10429F588E997E00E94D40D8170909109
:10078000BB079E7F982B9093BB0786EB97E00E9458
:10079000D40D8170880F9091BB079D7F982B90930B
:1007A000BB0784ED97E00E94D40D8170880F880FFD
:1007B0009091BB079B7F982B9093BB0704C08DEC57
:1007C00094E00E945A06ADB7BEB71A970FB6F894D8
:1007D000BEBF0FBEADBFEDB7FEB7319612965C92AD
:1007E0004E92119727E135E0338322838091BB0736
:1007F0008170848315828091BB0786958170868382
:1008000017828091BB0786958695817080871186B7
:100810000E940A0E8DB79EB70A96DCC08AE797E061
:100820006DE375E00E94F20D009709F05CC097E05F
:10083000C916D10429F588E997E00E94D40D3C013E
:1008400086EB97E00E94D40D4C0184ED97E00E9466
:10085000D40D5C0182EF97E00E94D40D6C0180E121
:1008600098E00E94D40D8C018EE298E00E94D40D95
:100870007C01C301B401A50196010E947A0504C060
:1008800084E495E00E945A0688E997E00E94D40D1E
:100890004C0186EB97E00E94D40D5C0184ED97E05B
:1008A0000E94D40D6C0182EF97E00E94D40D7C0170
:1008B00080E198E00E94D40D8C018EE298E00E94C5
:1008C000D40DADB7BEB750970FB6F894BEBF0FBEEC
:1008D000ADBFEDB7FEB7319612965C924E9211976E
:1008E0002BE835E064C08AE797E064EB75E00E948E
:1008F000F20D009709F075C097E0C916D10429F5EB
:1009000088E997E00E94D40D3C0186EB97E00E94B5
:10091000D40D4C0184ED97E00E94D40D5C0182EF70
:1009200097E00E94D40D6C0180E198E00E94D40D04
:100930008C018EE298E00E94D40D7C01C301B401C9
:10094000A50196010E947A0504C08BEB95E00E94F8
:100950005A0688E997E00E94D40D4C0186EB97E097
:100960000E94D40D5C0184ED97E00E94D40D6C01CF
:1009700082EF97E00E94D40D7C0180E198E00E9414
:10098000D40D8C018EE298E00E94D40DADB7BEB7B5
:1009900050970FB6F894BEBF0FBEADBFEDB7FEB710
:1009A000319612965C924E92119725E036E0338391
:1009B000228395828482B782A682D186C086F386FE
:1009C000E28615870487978786870E940A0E8DB76F
:1009D0009EB740960FB6F8949EBF0FBE8DBFC20162
:1009E00023C000D000D000D0EDB7FEB73196ADB730
:1009F000BEB712965C924E9211972EE236E0338388
:100A000022838AE797E0958384830E940A0EADB71C
:100A1000BEB716960FB6F894BEBF0FBEADBFC201EB
:100A20000E945A0685E496E00E945A0682EC97E0FE
:100A300066E776E00E94FB0D1092C1071092C00796
:100A40008DE00E9454069BCC1F920F920FB60F921E
:100A500011241F932F933F934F935F936F937F9333
:100A60008F939F93AF93BF93CF93DF93EF93FF93B6
:100A70001CB11D3039F481E090E09093C107809360
:100A8000C0071AC01CB9E2ECF7E0EF0109900020A2
:100A9000E9F72197CE1BDF0BCF31D1052CF0CF0129
:100AA00066E776E00E94FB0DFE01EE53F84F1083DF
:100AB000FE01ED53F84F1082FF91EF91DF91CF913E
:100AC000BF91AF919F918F917F916F915F914F9166
:100AD0003F912F911F910F900FBE0F901F9018956F
:100AE00088B38C6F88BB85B38C6185BB8BB3806EFC
:100AF0008BBB0895EF92FF920F931F93892B11F0F8
:100B000090E801C090E0672B09F09064452B09F054
:100B10009062232B09F09061012B09F09860EF2877
:100B200009F0946088B3837088BB88B3982B98BB16
:100B30001F910F91FF90EF900895892B11F090E88D
:100B400001C090E0672B09F09064452B09F090629A
:100B500088B3887F88BB88B3982B98BB0895892B6E
:100B600011F090E101C090E0672B09F09860452BEF
:100B700009F0946088B3887F88BB88B3982B98BBB2
:100B80000895EF92FF920F931F93892B11F090E835
:100B900001C090E0672B09F09064452B09F090624A
:100BA000232B09F09061012B09F09860EF2809F0E0
:100BB000946085B3837085BB85B3982B95BB1F91DB
:100BC0000F91FF90EF900895892B11F090E801C0EC
:100BD00090E0672B09F09064452B09F0906285B393
:100BE0008F7185BB85B3982B95BB0895892B11F028
:100BF00090E101C090E0672B09F09860452B09F067
:100C0000946085B3837E85BB85B3982B95BB08958F
:100C1000892B11F090E101C090E0672B09F09860FA
:100C2000452B09F094608BB3837E8BBB8BB3982BE1
:100C30009BBB0895892B11F090E801C090E0672BD1
:100C400009F09064452B09F090628BB3909598233E
:100C50009BBB8BB3806E8BBB0895EF92FF920F937B
:100C60001F93FC01232B11F020E101C020E0012B98
:100C700009F02860EF2809F024608BB3837E8BBBDA
:100C80008BB3282B2BBBCF010E941A061F910F910B
:100C9000FF90EF90089510BC88E089B988E98AB97F
:100CA00080B5866880BD08955D9BFECF8CB980E0DD
:100CB00090E00895FC0104C05D9BFECF8CB9319695
:100CC00080818823C9F70895A0E3B0E0EAE6F6E062
:100CD0000C942914A8E04E010894811C911CF40185
:100CE000BA2F1192BA95E9F729833A834B835C8333
:100CF0006D837E838F839887CE010996FC011192C4
:100D0000AA95E9F7A986BA86CB86DC86ED86FE86AB
:100D10000F87188B29813A814B815C812DA73EA7D3
:100D20004FA758AB79018A018FEF9FEFA0E0B0E0A9
:100D3000E822F9220A231B231A0144245524298579
:100D40003A854B855C8529A73AA74BA75CA7590133
:100D50006A01A822B922CA22DB223A0188249924F6
:100D6000C601B501A80197010E94E8136DA37EA3F7
:100D70008FA398A7C401B3010E94E81369A37AA3C3
:100D80008BA39CA3C601B501A20191010E94E813A7
:100D90007B018C01C401B3010E94E8135B016C016B
:100DA00089A19AA1ABA1BCA18E0D9F1DA01FB11F4F
:100DB00089A39AA3ABA3BCA32DA13EA14FA158A583
:100DC000CA01AA27BB2729A13AA14BA15CA1280FE0
:100DD000391F4A1F5B1F29A33AA34BA35CA32E15FF
:100DE0003F054007510740F480E090E0A1E0B0E00B
:100DF000A80EB91ECA1EDB1E89A19AA1ABA1BCA177
:100E00009D01442755272A0D3B1D4C1D5D1D2D8F2F
:100E10003E8F4F8F58A36C01BB24AA248DA19EA1A5
:100E2000AFA1B8A5A070B070A80EB91ECA1EDB1E77
:100E3000A98EBA8ECB8EDC8E9A8C8B8C7C8C9E8D00
:100E40006F8D78A1FE01719688E0DF011D928A9571
:100E5000E9F72D8B9E8B6F8B788F2D853E854F8587
:100E600058896DA57EA58FA598A90E94E8137B01DE
:100E70008C012D813E814F81588569A57AA58BA56E
:100E80009CA50E94E813E60EF71E081F191F6D8926
:100E90007E898F89988D6E0D7F1D801F911F6D8BB0
:100EA0007E8B8F8B988FEE892A2D392D482D572DCB
:100EB0007E2F8F89988DE096E2E10C944514AEE583
:100EC000B0E0E5E6F7E00C942914A8E04E010894A0
:100ED000811C911CF4016A2E11926A94E9F729830E
:100EE0003A834B835C836D837E838F839887CE01A7
:100EF0000996FC011192AA95E9F7A986BA86CB86D4
:100F0000DC86ED86FE860F87188B29843A844B8415
:100F10005C84ED84FE840F85188969807A808B80DB
:100F20009C806DA67EA68FA698AA6D807E808F80FD
:100F30009884E114F1040105110509F0B3C36214AA
:100F400073048404950408F03DC100E0201600E01D
:100F5000300601E0400600E0500688F41FEF21163D
:100F600031044104510439F030F048E0E42EF12C12
:100F7000012D112D18C0EE24FF24870114C020E09C
:100F8000221620E0320620E0420621E0520630F030
:100F900038E1E32EF12C012D112D05C020E1E22EC8
:100FA000F12C012D112DD201C1010E2C04C0B695DA
:100FB000A795979587950A94D2F78958994FDC01A0
:100FC0002C9180E290E0A0E0B0E08E199F09A00B88
:100FD000B10B7C018D01E21AF10801091109E1143C
:100FE000F10401051105A1F10E2C04C0220C331CE3
:100FF000441C551C0A94D2F7A40193010E2C04C082
:10100000220F331F441F551F0A94D2F780E290E04D
:101010008E199F096DA47EA48FA498A804C09694ED
:101020008794779467948A95D2F7622A732A842AE0
:10103000952AADA4BEA4CFA4D8A804C0AA0CBB1CFA
:10104000CC1CDD1CEA94D2F7ADA6BEA6CFA6D8AACA
:101050006201EE24FF24CDAADEAAEFAAF8AE920127
:1010600081012070307009AF1AAF2BAF3CAFC401C3
:10107000B301A70196010E9407147B018C01C401F2
:10108000B3012DA93EA94FA958AD0E940714C9016B
:10109000DA013C014D01C401B30129AD3AAD4BADBC
:1010A0005CAD0E94E8139B01AC018701FF24EE2494
:1010B000ADA4BEA4CFA4D8A8C601AA27BB275701B8
:1010C0006801A82AB92ACA2ADB2AA216B306C406CE
:1010D000D506E0F408946108710881089108A20C13
:1010E000B31CC41CD51CA214B304C404D50470F0F2
:1010F000A216B306C406D50648F408946108710820
:1011000081089108A20CB31CC41CD51CA21AB30AF6
:10111000C40AD50AC601B5012DA93EA94FA958ADEB
:101120000E9407147B018C01C601B5012DA93EA9BF
:101130004FA958AD0E940714C901DA015C016D0185
:10114000C601B50129AD3AAD4BAD5CAD0E94E813C7
:101150009B01AC018701FF24EE248DA59EA5AFA5C0
:10116000B8A9A070B070E82AF92A0A2B1B2BE21646
:10117000F30604071507C0F40894A108B108C108D4
:10118000D108E20CF31C041D151DE214F304040540
:10119000150550F0E216F3060407150728F4089425
:1011A000A108B108C108D108D30199278827860171
:1011B0007501E82AF92A0A2B1B2BE9AAFAAA0BAB1C
:1011C0001CABCFC4211431044104510471F461E01B
:1011D00070E080E090E020E030E040E050E00E94ED
:1011E0000714C901DA011C012D0100E0201600E0FE
:1011F000300601E0400600E0500688F41FEF21169B
:1012000031044104510431F028F048E050E060E03E
:1012100070E017C040E050E060E070E012C020E0F5
:10122000221620E0320620E0420621E0520628F095
:1012300048E150E060E070E004C040E150E060E070
:1012400070E0D201C101042E04C0B695A795979510
:1012500087950A94D2F78958994FDC012C91E0E2E6
:10126000EE2EF12C012D112DD801C701841B950BF9
:10127000A60BB70B821B9109A109B1090097A10523
:10128000B10561F464015301A218B308C408D5087C
:1012900031E0632E712C812C912C1EC16F968FAF83
:1012A0006F97082E04C0220C331C441C551C0A9452
:1012B000D2F7EE2DE81B640153010E2E04C0D69424
:1012C000C794B794A7940A94D2F7A40193016F9698
:1012D0000FAC6F9704C0220F331F441F551F0A9491
:1012E000D2F76DA47EA48FA498A80E2E04C0969465
:1012F0008794779467940A94D2F784017301E22A61
:10130000F32A042B152BE9A6FAA60BA71CA732017A
:1013100088249924920181012070307021960CAFAD
:101320001DAF2EAF3FAF2197C601B501A4019301B8
:101330000E9407147B018C01C601B501A401930131
:101340000E940714C901DA0125968CAF9DAFAEAF9C
:10135000BFAF2597BC01CD0121962CAD3DAD4EAD63
:101360005FAD21970E94E8139B01AC018701FF2428
:10137000EE24A9A4BAA4CBA4DCA4C601AA27BB2747
:101380005C016D01AE28BF28C02AD12AA216B3067F
:10139000C406D50660F525966CAD7DAD8EAD9FADCE
:1013A0002597615070408040904025966CAF7DAF8E
:1013B0008EAF9FAF2597A20CB31CC41CD51CA214E2
:1013C000B304C404D50498F0A216B306C406D50627
:1013D00070F4615070408040904025966CAF7DAFB6
:1013E0008EAF9FAF2597A20CB31CC41CD51CA21AAC
:1013F000B30AC40AD50AC601B501A40193010E942B
:1014000007147B018C01C601B501A40193010E9460
:101410000714C901DA013C014D01C401B301219651
:101420002CAD3DAD4EAD5FAD21970E94E8139B0101
:10143000AC018701FF24EE2489A59AA5ABA5BCA524
:10144000A070B07057016801A82AB92ACA2ADB2AFD
:10145000A216B306C406D506E0F408946108710824
:1014600081089108A20CB31CC41CD51CA214B3049F
:10147000C404D50470F0A216B306C406D50648F419
:1014800008946108710881089108A20CB31CC41C5F
:10149000D51C8DA59EA5AFA5B8A96F960FAC6F976B
:1014A00004C0880F991FAA1FBB1F0A94D2F78DA7EB
:1014B0009EA7AFA7B8ABA21AB30AC40AD50A25964D
:1014C000ECACFDAC0EAD1FAD2597D7019927882751
:1014D000682A792A8A2A9B2A820122273327299679
:1014E0000CAF1DAF2EAF3FAF2997A2019101407005
:1014F00050702D962CAF3DAF4EAF5FAF2D97C6010C
:10150000B50129962CAD3DAD4EAD5FAD29970E943A
:1015100007147B018C01C601B50129962CAD3DADA8
:101520004EAD5FAD29970E940714C901DA0161969B
:101530008CAF9DAFAEAFBFAF6197BC01CD012D9613
:101540002CAD3DAD4EAD5FAD2D970E94E8139B01D4
:10155000AC018701FF24EE24ADA4BEA4CFA4D8A87B
:10156000C601AA27BB2757016801A82AB92ACA2A97
:10157000DB2AA216B306C406D50660F561966CADEB
:101580007DAD8EAD9FAD61976150704080409040C1
:1015900061966CAF7DAF8EAF9FAF6197A20CB31C0D
:1015A000C41CD51CA214B304C404D50498F0A2161C
:1015B000B306C406D50670F4615070408040904078
:1015C00061966CAF7DAF8EAF9FAF6197A20CB31CDD
:1015D000C41CD51CA21AB30AC40AD50AC601B50197
:1015E00029962CAD3DAD4EAD5FAD29970E940714F5
:1015F0007B018C01C601B50129962CAD3DAD4EADE8
:101600005FAD29970E940714C901DA015C016D01E1
:10161000C601B5012D962CAD3DAD4EAD5FAD2D97FC
:101620000E94E8139B01AC018701FF24EE248DA5E5
:101630009EA5AFA5B8A9A070B070E82AF92A0A2B18
:101640001B2BE216F30604071507C0F40894A10843
:10165000B108C108D108E20CF31C041D151DE214E9
:10166000F3040405150550F0E216F3060407150708
:1016700028F40894A108B108C108D1086196ECAC1F
:10168000FDAC0EAD1FAD6197D70199278827960154
:101690008501082B192B2A2B3B2B09AB1AAB2BAB43
:1016A0003CAB62C26E147F048006910608F451C2FE
:1016B00020E0E21620E0F20621E0020720E0120717
:1016C00088F43FEFE316F1040105110531F028F02D
:1016D00048E050E060E070E017C040E050E060E0BB
:1016E00070E012C040E0E41640E0F40640E0040779
:1016F00041E0140728F048E150E060E070E004C0E9
:1017000040E150E060E070E0D801C701042E04C061
:10171000B695A795979587950A94D2F78958994FCA
:10172000DC012C9130E2A32EB12CC12CD12CD6019E
:10173000C501841B950BA60BB70B821B9109A10950
:10174000B1090097A105B10589F4E614F70408056D
:10175000190508F4F2C16DA47EA48FA498A86214A0
:1017600073048404950408F0E8C1F3C16E968FAF4A
:101770006E97082E04C0EE0CFF1C001F111F0A9468
:10178000D2F76A2D681BD201C101062E04C0B6959E
:10179000A795979587950A94D2F75C016D01AE28BD
:1017A000BF28C02AD12AADA2BEA2CFA2D8A672015C
:1017B00061016E960FAC6E9704C0CC0CDD1CEE1C64
:1017C000FF1C0A94D2F7C9A2DAA2EBA2FCA2640120
:1017D0005301062E04C0D694C794B794A7940A94D4
:1017E000D2F7D401C3016E960FAC6E9704C0880F78
:1017F000991FAA1FBB1F0A94D2F7EDA4FEA40FA540
:1018000018A904C016950795F794E7946A95D2F73E
:1018100037014801682A792A8A2A9B2A6D8E7E8E92
:101820008F8E98A2EDA0FEA00FA118A538018824E4
:101830009924980187012070307065960CAF1DAF18
:101840002EAF3FAF6597C601B501A40193010E9479
:1018500007147B018C01C601B501A40193010E940C
:101860000714C901DA011C012D01C201B1016596FD
:101870002CAD3DAD4EAD5FAD65970E94E8139B0169
:10188000AC018701FF24EE24AD8CBE8CCF8CD8A098
:10189000C601AA27BB2757016801A82AB92ACA2A64
:1018A000DB2AA216B306C406D50600F50894210863
:1018B000310841085108EDA0FEA00FA118A5AE0CFB
:1018C000BF1CC01ED11EAE14BF04C006D10670F0EE
:1018D000A216B306C406D50648F4089421083108B8
:1018E00041085108AE0CBF1CC01ED11EA21AB30A7B
:1018F000C40AD50AC601B501A40193010E940714C8
:101900007B018C01C601B501A40193010E9407145B
:10191000C901DA013C014D01C401B30165962CAD4A
:101920003DAD4EAD5FAD65970E94E8139B01AC01E4
:101930008701FF24EE248D8D9E8DAF8DB8A1A07000
:10194000B07057016801A82AB92ACA2ADB2AA21650
:10195000B306C406D50600F508946108710881082D
:1019600091086DA17EA18FA198A5A60EB71EC81ED5
:10197000D91EA616B706C806D90670F0A216B30679
:10198000C406D50648F408946108710881089108D6
:10199000A60EB71EC81ED91ED601C501821B930B09
:1019A000A40BB50B898F9A8FAB8FBC8FD101992770
:1019B000882764015301A82AB92ACA2ADB2AA9AABE
:1019C000BAAACBAADCAA860175012FEF3FEF40E04F
:1019D00050E0E222F32204231523A601662777278D
:1019E0006D964CAF5DAF6EAF7FAF6D97A9A0BAA0FB
:1019F000CBA0DCA06FEF7FEF80E090E0A622B722C3
:101A0000C822D92289A19AA1ABA1BCA11D0144245D
:101A10005524C801B701A60195010E94E8136996F3
:101A20006CAF7DAF8EAF9FAF6997C801B701A201C0
:101A300091010E94E8133B014C016D966CAD7DADA8
:101A40008EAD9FAD6D97A60195010E94E8137B01B5
:101A50008C016D966CAD7DAD8EAD9FAD6D97A20185
:101A600091010E94E8135B016C01A8019701260D0A
:101A7000371D481D591D69966CAC7DAC8EAC9FAC72
:101A80006997C401AA27BB27280F391F4A1F5B1F6C
:101A90002E153F054007510748F4E12CF12C61E079
:101AA000062F112DAE0CBF1CC01ED11ECA01AA27C5
:101AB000BB27BC01CD016A0D7B1D8C1D9D1D698C52
:101AC0007A8C8B8C9C8C661677068806990640F17A
:101AD000661577058805990509F043C0D90199274E
:101AE000882769962CAD3DAD4EAD5FAD69974070CE
:101AF0005070820F931FA41FB51F2DA53EA54FA5A3
:101B000058A96E960FAC6E9704C0220F331F441F66
:101B1000551F0A94D2F7281739074A075B0708F5BB
:101B200009A91AA92BA93CA9015010402040304016
:101B300009AB1AAB2BAB3CAB14C066247724430132
:101B400021E030E040E050E029AB3AAB4BAB5CAB7E
:101B50000BC066247724430119AA1AAA1BAA1CAA3F
:101B600003C0662477244301FE01719688E0DF01FB
:101B70001D928A95E9F7A9A8BAA8CBA8DCA8A98ADA
:101B8000BA8ACB8ADC8A6D8A7E8A8F8A988E29A946
:101B90003A894B895C89662D7E898F89988DC25AD6
:101BA000DF4FE2E10C944514FC0188279927E89463
:101BB00021912032E9F3293010F02E30C8F32B3276
:101BC00041F02D3239F4689404C00E94020E820F55
:101BD000911D219120532A30C0F31EF490958195D8
:101BE0009F4F0895FB01DC018D9101908019011038
:101BF000D9F3990B0895FB01DC0101900D920020AF
:101C0000E1F708957AE0979F902D879F802D910DA1
:101C100011240895AEE0B0E0E0E1FEE00C9437144A
:101C20000D891E8986E08C831A8309838FEF9FE7D5
:101C30009E838D839E01275E3F4FCE0101966F8963
:101C4000788DA9010E94480E2F813885020F131F3D
:101C5000F80110822E96E4E00C945314AEE0B0E04C
:101C6000E4E3FEE00C94391485E08C838B899C8935
:101C70009A8389839E01295E3F4FCE0101966D892B
:101C80007E89A9010E94A9112E96E2E00C945514B8
:101C9000ABE0B0E0EEE4FEE00C9429143C012B0133
:101CA0005A01FC0117821682838181FD03C06FEF08
:101CB0007FEFC6C19AE0892E1E010894211C311CB9
:101CC000F3012381F20123FD859123FF81912F01EF
:101CD000882309F4B2C1853239F423FD859123FFAD
:101CE00081912F01853229F490E0B3010E941D13E8
:101CF000E7CF982FFF24EE249924FFE1FF15D0F0C1
:101D00009B3269F09C3228F4903259F0933291F46E
:101D10000EC09D3249F0903369F441E024C052E096
:101D2000F52A84E0F82A28C098E0F92A25C0E0E1E5
:101D3000FE2A22C0F7FC29C0892F80538A3070F414
:101D4000F6FE05C0989C902C1124980E15C0E89CB6
:101D5000E02C1124E80EF0E2FF2A0EC09E3229F496
:101D6000F6FC6BC140E4F42A07C09C3619F450E835
:101D7000F52A02C0983649F4F20123FD959123FF1C
:101D800091912F01992309F0B8CF892F8554833081
:101D900018F08052833038F444E050E0A40EB51EB1
:101DA0005FE359830FC0933631F0933779F0933561
:101DB00009F056C020C0F5018081898342E050E0DF
:101DC000A40EB51E610101E010E012C0F501C08053
:101DD000D180F6FC03C06FEF7FEF02C0692D70E089
:101DE00042E050E0A40EB51EC6010E94D0128C0144
:101DF0005FE7F52214C0F501C080D180F6FC03C076
:101E00006FEF7FEF02C0692D70E042E050E0A40E5A
:101E1000B51EC6010E94C5128C0150E8F52AF3FEDA
:101E200007C01AC080E290E0B3010E941D13EA943B
:101E30008E2D90E008171907A8F30EC0F601F7FCE5
:101E40008591F7FE81916F0190E0B3010E941D130F
:101E5000E110EA94015010400115110579F7EAC02C
:101E6000943611F0993669F5F7FE08C0F501208126
:101E700031814281538184E090E00AC0F501808184
:101E800091819C01442737FD4095542F82E090E0DA
:101E9000A80EB91E9FE6F92257FF09C0509540953C
:101EA000309521953F4F4F4F5F4FE0E8FE2ACA0122
:101EB000B901A1012AE030E00E946313D82ED218A4
:101EC00040C0953729F41F2D1F7E2AE030E01DC049
:101ED0001F2D197F9F3661F0903720F4983509F057
:101EE000ACC00FC0903739F0983709F0A6C004C0D5
:101EF00028E030E00AC0106114FD146020E130E0F9
:101F000004C014FD166020E132E017FF08C0F5019F
:101F1000608171818281938144E050E008C0F501C5
:101F200080819181BC0180E090E042E050E0A40E0D
:101F3000B51EA1010E946313D82ED2188FE7F82E88
:101F4000F122F6FE0BC05EEFF522D91438F4F4FE50
:101F500007C0F2FC05C08FEEF82202C01D2D01C0A3
:101F6000192DF4FE0DC0FE01ED0DF11D80818033B1
:101F700019F499EEF92208C01F5FF2FE05C003C0F4
:101F80008F2D867809F01F5F0F2DF3FC14C0F0FE33
:101F90000FC01E1510F09D2C0BC09D2C9E0C911A8D
:101FA0001E2D06C080E290E0B3010E941D131F5F4A
:101FB0001E15C0F304C01E1510F4E11A01C0EE2472
:101FC00004FF0FC080E390E0B3010E941D1302FFE5
:101FD0001DC001FD03C088E790E00EC088E590E0D9
:101FE0000BC0802F867891F001FF02C08BE201C008
:101FF00080E2F7FC8DE290E0B3010E941D1306C061
:1020000080E390E0B3010E941D139A94D914C0F3A9
:10201000DA94F101ED0DF11D808190E0B3010E9491
:102020001D13DD20A9F706C080E290E0B3010E94F5
:102030001D13EA94EE20C1F743CEF3016681778148
:10204000CB012B96E2E10C944514FC0120FD08C065
:1020500023FD05C022FF02C0738362835183408346
:102060000895EF92FF920F931F9344FF02C033E055
:1020700011C046FF02C034E00DC0DB01FC01AA0F15
:10208000BB1FEE1FFF1F1094D1F76A0F7B1F8E1F1F
:102090009F1F31E0660F771F881F991F3150D1F7BE
:1020A0007B018C01E20EF11C011D111DA80197019D
:1020B000B701CA011F910F91FF90EF9008950F9300
:1020C0001F93CF93DF938C01C8010E94DB12EC01B8
:1020D00097FD08C00E946014892BB1F7CE01B801AA
:1020E0000E944913CE01DF91CF911F910F91089566
:1020F000A0E0B0E0EEE7F0E10C943114EC01C62E64
:102100005A01122F0E94DB12AC018B3219F08D3272
:1021100051F41068CA9409F46DC0CE010E94DB121C
:10212000AC0197FD67C06DEFD62ED1228D2D807347
:1021300001F54033F1F4CA9409F447C0CE010E947E
:10214000DB12AC0197FD41C082E0D82A483711F07C
:10215000483559F480E4D82ACA94B9F1CE010E94D6
:10216000DB12AC0199232CF430C0D6FC02C080E114
:10217000D82AEE24FF248701242F2053283088F00A
:10218000D4FC09C02A3068F0D6FE05C02F7D822F0E
:102190008151863028F0CA01BE010E94491312C045
:1021A0002750C801B7014D2D0E9431107B018C01D1
:1021B00082E0D82ACA9461F0CE010E94DB12AC0101
:1021C00097FFDACFD1FC04C015C0EE24FF248701AD
:1021D000D7FE08C010950095F094E094E11CF11C26
:1021E000011D111DC501B801A7012D2D0E9425104B
:1021F00081E001C080E0CDB7DEB7EAE00C944D1479
:10220000A0E2B0E0E6E0F1E10C942D146C01A62E02
:102210008A017901FE01319680E2DF011D928A95E3
:10222000E9F770E030E060E040E050E04F01A1E00D
:10223000B0E0F6018381F70183FD259183FF2191B1
:102240007F01222309F47EC02E3519F44115510572
:1022500069F1872F90E08417950744F42D3551F1EB
:102260002D3221F4332329F431E021C0332309F442
:10227000622F322F832F869586958695F401E80F7D
:10228000F11D832F87703D0102C0660C771C8A9573
:10229000E2F7208126292083361711F430E007C0A9
:1022A000361710F43F5FE6CF3150E4CF71E04F5F57
:1022B0005F4FBFCF332319F08E8180628E837723E7
:1022C00059F0FE0131969E012F5D3F4F8081809530
:1022D0008193E217F307D1F7BB24B3944E0108941E
:1022E000811C911CC6010E94DB12AC0197FD22C02B
:1022F000869586958695F401E80FF11D808190E022
:102300009A012770307002C0959587952A95E2F75B
:1023100080FD05C0CA01B6010E9449130BC001151A
:10232000110519F0D8014D938D01AA94BB24AA2060
:10233000C9F602C0BB2031F40115110529F0F801DE
:10234000108202C0EE24FF24C701A096EEE00C9498
:102350004914A0E0B0E0EFEAF1E10C942D145C0127
:102360006B013A01FC01178216828824EAC0812F92
:1023700090E00E946014892B21F0C5010E945F103B
:10238000E0C0153249F4F601F3FC6591F3FE61916A
:102390006F01653269F415E2C5010E94DB1297FDF9
:1023A000DCC0181709F4CDC0B5010E944913DAC08A
:1023B0006A3219F0162F00E006C0F3FC1591F3FE07
:1023C00011916F0101E099240FC00260692D70E046
:1023D00080E090E040E20E943110962EF601F3FC7E
:1023E0001591F3FE11916F01212F20532A3068F3CC
:1023F00001FD03C099249A9403C0992009F4B2C046
:10240000183621F01C3699F4F6010BC0F601F3FCE6
:102410006591F3FE6191683619F06F01162F07C0C0
:1024200008600460F3FC1591F3FE11916F01112314
:1024300009F498C084E590E0612F70E00E94BA1220
:10244000892B09F48FC0802F00FF03C0EE24FF24E6
:1024500007C0F301E080F18022E030E0620E731EDD
:102460001E3651F4F5014681578160E070E0C701E6
:10247000202F0E94251065C0133691F481FD02C003
:1024800099249394C5010E94DB1297FD66C0E11464
:10249000F10419F0F70181937F019A9499F74FC0E5
:1024A0001B3559F4C501692DA70196010E94001141
:1024B0006C01009709F043C03DC0C5010E945F1048
:1024C00097FD4BC01F3659F1103728F4143629F107
:1024D000193639F527C0133719F0153711F51DC016
:1024E000C5010E94DB12EC0197FD11C00E9460142F
:1024F000892B29F0CE01B5010E94491308C0E114CF
:10250000F10419F0F701C1937F019A9449F7E1149E
:10251000F104A9F0F701108212C0006203C000614B
:1025200001C00064C501692DA701202F0E94781009
:10253000882329F4F5018381807379F413C000FFA7
:102540008394F501F380F601F3FC1591F3FE1191EC
:102550006F01112309F00BCF05C0882019F42FEF6C
:102560003FEF02C0282D30E0C901CDB7DEB7EEE065
:102570000C944914FC010590061621F00020D9F7AF
:10258000C00108953197CF010895FC010590615075
:1025900070400110D8F7809590958E0F9F1F089579
:1025A000FC016150704001900110D8F78095909522
:1025B0008E0F9F1F0895CF93DF93EC014B8140FF57
:1025C0001AC046FF0AC04F7B4B838E819F810196C4
:1025D0009F838E838A81282F2BC042FF13C0E881FE
:1025E000F9818081282F332727FD3095211531056A
:1025F00029F440624B832FEF3FEF1BC03196F983E4
:10260000E88311C0EA85FB85CE0109959C0197FFFF
:102610000AC09B812F5F3F4F11F080E201C080E133
:10262000892B8B83E8CF8E819F8101969F838E8338
:1026300030E0C901DF91CF9108950F931F93CF939D
:10264000DF938C01EB018B8181FF1BC082FF0DC0EA
:102650002E813F818C819D812817390764F4E881A0
:10266000F9810193F983E88306C0E885F985802F15
:102670000995892B31F48E819F8101969F838E83EA
:1026800002C00FEF1FEFC801DF91CF911F910F9193
:1026900008959C01FB01838180FF11C086FD0FC05E
:1026A0009FEF2F3F390759F0228380648F7D83830A
:1026B0008681978101979783868330E002C02FEF50
:1026C0003FEFC9010895FA01AA27283051F12031BE
:1026D00081F1E8946F936E7F6E5F7F4F8F4F9F4FB6
:1026E000AF4FB1E03ED0B4E03CD0670F781F891FF8
:1026F0009A1FA11D680F791F8A1F911DA11D6A0FC6
:10270000711D811D911DA11D20D009F468943F9178
:102710002AE0269F11243019305D3193DEF6CF0177
:102720000895462F4770405D4193B3E00FD0C9F73D
:10273000F6CF462F4F70405D4A3318F0495D31FDAA
:102740004052419302D0A9F7EACFB4E0A6959795FD
:10275000879577956795BA95C9F7009761057105D3
:1027600008959B01AC010A2E06945795479537951D
:102770002795BA95C9F7620F731F841F951FA01D77
:102780000895AA1BBB1B51E107C0AA1FBB1FA617B8
:10279000B70710F0A61BB70B881F991F5A95A9F70A
:1027A00080959095BC01CD01089597FB092E0726D1
:1027B0000AD077FD04D0E5DF06D000201AF470952A
:1027C00061957F4F0895F6F7909581959F4F0895F5
:1027D000629FD001739FF001829FE00DF11D649F05
:1027E000E00DF11D929FF00D839FF00D749FF00D91
:1027F000659FF00D9927729FB00DE11DF91F639F32
:10280000B00DE11DF91FBD01CF0111240895A1E212
:102810001A2EAA1BBB1BFD010DC0AA1FBB1FEE1F5A
:10282000FF1FA217B307E407F50720F0A21BB30BA5
:10283000E40BF50B661F771F881F991F1A9469F721
:1028400060957095809590959B01AC01BD01CF017D
:1028500008952F923F924F925F926F927F928F9244
:102860009F92AF92BF92CF92DF92EF92FF920F931F
:102870001F93CF93DF93CDB7DEB7CA1BDB0B0FB629
:10288000F894DEBF0FBECDBF09942A8839884888E6
:102890005F846E847D848C849B84AA84B984C8847C
:1028A000DF80EE80FD800C811B81AA81B981CE0F73
:1028B000D11D0FB6F894DEBF0FBECDBFED01089558
:1028C000911106C0803219F089508550D0F70895D3
:0A28D000992788270895F894FFCF98
:1028DA000A232323232323232323232323232323D7
:1028EA0023232323232323232323232323232323AE
:1028FA00232323232323232323232323232323239E
:10290A0023232323232323232323000A23202020D2
:10291A00202020202020202020202057656C636F53
:10292A006D65206F6E2041744D6567613332277380
:10293A00205553415254202020202020202020209E
:10294A002020202023000A232020202020202020AD
:10295A002020202020202020746869732069732099
:10296A0061205374657070657220546573742E20EB
:10297A00202020202020202020202020202020234A
:10298A00000A232323232323232323232323232349
:10299A0023232323232323232323232323232323FD
:1029AA0023232323232323232323232323232323ED
:1029BA0023232323232323232323230A00253331F9
:1029CA005B5E3B5D256E0068656C70003F000A5BCC
:1029DA0055736167655D20456E74657220436F6D3E
:1029EA006D616E643A000A202020202020202020D9
:1029FA00202020202020202068656C70206F722003
:102A0A003F202D20666F7220746869732048656CB8
:102A1A0070000A2020202020202020202020202092
:102A2A0020202020202020207665722020202D20A2
:102A3A00446973706C6179204669726D7761726559
:102A4A002056657273696F6E000A202020202020AC
:102A5A0020202020202020202020202020207374C5
:102A6A0065702020202D206D6F76696E67204D6F6E
:102A7A00746F7273206D616B652078207374657052
:102A8A0073000A202020202020202020202020201F
:102A9A0020202020202073746172742020202D2091
:102AAA00537461727420636F6E74696D6F757320ED
:102ABA005374657070696E67000A202020202020F8
:102ACA002020202020202020202020202020737455
:102ADA006F702020202D2053746F7020436F6E7406
:102AEA00696D6F7573205374657070696E67000A3B
:102AFA0020202020202020202020202020202020CC
:102B0A0073657453706565642020202D2073657485
:102B1A0020746865205370656564206F662053745D
:102B2A00657070696E67000A20202020202020200E
:102B3A002020202020202020207365744D6F766588
:102B4A002020202D2073657420746865204D6F74D1
:102B5A006F727320746F206D6F7665000A202020D3
:102B6A002020202020202020202020202020207308
:102B7A0065744469722020202D207365742074685E
:102B8A006520446972656374696F6E206F6620748C
:102B9A006865204D6F746F7273000A202020202010
:102BAA00202020202020202020202020207365742F
:102BBA0043746C2020202D2073657420746865206E
:102BCA00436F6E74726F6C2053657474696E6773A9
:102BDA002C20776963682061726520454E312D3358
:102BEA0020616E64204846312D33000A20202020BF
:102BFA002020202020202020202020202020736533
:102C0A00744164642020202D2073657420746865E3
:102C1A00204164646974696F6E616C2053657474D1
:102C2A00696E67732C206E616D656C792043544C14
:102C3A00312D3320616E64205253312D3300766575
:102C4A0072000A204669726D776172652056657254
:102C5A0073696F6E3A202020257300302E302E3192
:102C6A00207072652D616C70686100737461727492
:102C7A00000A4F4B2E0073746F70007365745370A3
:102C8A00656564005B556E6B6E6F776E205061727E
:102C9A00616D65746572735D2055736167653A206D
:102CAA007365745370656564203C53706565643E52
:102CBA00000A5B4D6F746F725D2053706565642006
:102CCA0053657474696E67733A2025690073657475
:102CDA004D6F7665005B556E6B6E6F776E20506137
:102CEA0072616D65746572735D2055736167653ACB
:102CFA00207365744D6F7665203C4D6F7665583E3E
:102D0A00203C4D6F7665593E203C4D6F76655A3EA4
:102D1A00000A5B4D6F746F725D204D6F76656D654D
:102D2A006E742073657474696E67733A202569201E
:102D3A00256920256900736574446972005B556EC4
:102D4A006B6E6F776E20506172616D657465727318
:102D5A005D2055736167653A207365744469722012
:102D6A003C446972656374696F6E583E203C4469DD
:102D7A0072656374696F6E593E203C44697265637B
:102D8A0074696F6E5A3E000A5B4D6F746F725D20F4
:102D9A00446972656374696F6E2053657474696EF1
:102DAA0067733A20256920256920256900736574AF
:102DBA0043746C005B556E6B6E6F776E2050617258
:102DCA00616D65746572735D2055736167653A203C
:102DDA0073657443746C203C454E313E203C454E2D
:102DEA00323E203C454E333E203C4846313E203C54
:102DFA004846323E203C4846333E000A5B4D6F74DB
:102E0A006F725D2043746C2053657474696E6773C6
:102E1A003A20256920256920256920256920256908
:102E2A0020256900736574416464005B556E6B6E9E
:102E3A006F776E20506172616D65746572735D2083
:102E4A0055736167653A2073657443746C203C431B
:102E5A00544C313E203C43544C323E203C43544C6B
:102E6A00333E203C5253313E203C5253323E203CAA
:102E7A005253333E000A5B4D6F746F725D2041649A
:102E8A00642053657474696E67733A202569202536
:102E9A0069202569202569202569202569000A5BA2
:102EAA00556E6B6E6F776E20436F6D6D616E645DEC
:102EBA003A202573000A20456E74657220223F224B
:102ECA00206F72202268656C702220666F72206102
:102EDA00206C697374206F6620636F6D6D616E6418
:102EEA0073202E2E2E0000000102020303030304A6
:102EFA00040404040404040505050505050505057F
:102F0A00050505050505050606060606060606065E
:102F1A000606060606060606060606060606060647
:102F2A00060606060606060707070707070707072E
:102F3A000707070707070707070707070707070717
:102F4A000707070707070707070707070707070707
:102F5A0007070707070707070707070707070707F7
:102F6A0007070707070707080808080808080808DE
:102F7A0008080808080808080808080808080808C7
:102F8A0008080808080808080808080808080808B7
:102F9A0008080808080808080808080808080808A7
:102FAA000808080808080808080808080808080897
:102FBA000808080808080808080808080808080887
:102FCA000808080808080808080808080808080877
:102FDA000808080808080808080808080808080867
:082FEA000808080808080800A7
:00000001FF
