:100000000C942A000C9447000C9447000C94470071
:100010000C94DD000C9447000C9447000C944700AE
:100020000C9447000C9447000C9482020C944700F7
:100030000C9447000C9447000C9447000C94470024
:100040000C9449000C9447000C9447000C94470012
:100050000C94470011241FBECFE5D8E0DEBFCDBF12
:1000600012E0A0E6B0E0E2E1F1E102C005900D92FD
:10007000A83AB107D9F712E0A8EAB2E001C01D9290
:10008000A83BB107E1F70E9474030C9487080C9415
:1000900000001F920F920FB60F9211242F933F93DF
:1000A0004F935F938F939F93AF93BF938091AA02D7
:1000B0009091AB02A091AC02B091AD0224B135B1E8
:1000C00040E050E0280F391F4A1F5B1F2093AA020F
:1000D0003093AB024093AC025093AD028091AE02DC
:1000E0009091AF0201969093AF028093AE02BF91C0
:1000F000AF919F918F915F914F913F912F910F9071
:100100000FBE0F901F901895909366008093650026
:1001100088BB8070937025B3892F990F990B2C7F22
:10012000282B25BB089587B1846487B986B18F6871
:1001300086B98FE085BD8FEF83BD89B7806889BFA1
:1001400008952091A8023091A902C9010895209133
:10015000630030916400C901089590936400809316
:10016000630008956091A8027091A902882777FD25
:100170008095982F24EA36E040E050E00E94F40792
:1001800023EC33E040E050E00E941308CA01B901BB
:1001900008956093B0027093B1028093B20290937D
:1001A000B30208952091B0023091B1024091B202A1
:1001B0005091B302B901CA0108951F920F920FB670
:1001C0000F921124EF92FF920F931F932F933F935F
:1001D0004F935F936F937F938F939F93AF93BF934F
:1001E000EF93FF93DF93CF93CDB7DEB76497DEBF76
:1001F000CDBF8091B4029091B502059709F073C00C
:100200008091AE029091AF02892B11F16091AA0208
:100210007091AB028091AC029091AD022091AE0240
:100220003091AF02442737FD4095542F0E941308A8
:100230003093A9022093A8021092AA021092AB0256
:100240001092AC021092AD021092AF021092AE0268
:100250006091A8027091A902882777FD8095982F58
:1002600024EA36E040E050E00E94F407E090B0025B
:10027000F090B1020091B2021091B30223EC33E08E
:1002800040E050E00E9413082E193F09400B510B2B
:10029000C90137FF03C0909581959F4F0297F4F0F5
:1002A000223031054105510534F08091650090916F
:1002B0006600019705C080916500909166000196E7
:1002C000909366008093650088BB25B3807093701F
:1002D000892F990F990B2C7F282B25BB1092B502E3
:1002E0001092B4022FC08091B4029091B502019691
:1002F0009093B5028093B4022091B4023091B5027C
:1003000000D000D000D0EDB7FEB731968E010F5F60
:100310001F4FADB7BEB712961C930E93119780E690
:1003200090E093838283358324830E9453058DB7A5
:100330009EB706960FB6F8949EBF0FBE8DBFC8013C
:100340000E94EF046496DEBFCDBFCF91DF91FF9195
:10035000EF91BF91AF919F918F917F916F915F913D
:100360004F913F912F911F910F91FF90EF900F9020
:100370000FBE0F901F9018950F931F93DF93CF938D
:10038000CDB7DEB7A4970FB6F894DEBF0FBECDBFD2
:100390008E010D5F1F4FC80161E10E94FD04892B92
:1003A00009F090C0C80167E670E00E94420500971E
:1003B00019F48AE690E084C0C80163E870E00E9406
:1003C0004205009731F48E9A80B390E4892782BB6E
:1003D00052C0C80168E870E00E944205009729F405
:1003E000D79A89B380588BBB46C0C8016CE870E0CF
:1003F0000E944205009781F482E990E00E94EF0498
:100400008E010C5E1F4FC80161E10E94FD04892B23
:10041000D1F780E061E016C0C8016BE970E00E948E
:1004200042050097A9F482E990E00E94EF048E0152
:100430000C5E1F4FC80161E10E94FD04892BD1F7BA
:1004400080E062E00E945103C8010E9467033AC045
:10045000C80161EA70E00E944205009719F40E9409
:10046000510409C0C80165EA70E00E944205009786
:1004700021F40E945A04C80123C0C80169EA70E04F
:100480000E944205009799F48BEA90E00E94EF04E5
:100490008E010F5F1F4FC80162E00E94FD04892B8F
:1004A000D1F7C8010E9424050E9492040BC0C80124
:1004B00062EC70E00E944205009721F487EC90E026
:1004C0000E94EF04A4960FB6F894DEBF0FBECDBF16
:1004D000CF91DF911F910F910895839B02C093E00C
:1004E00001C090E0829B02C081E098279093B60201
:1004F0001092B7028BE083BF89EF8CBF89B782600F
:1005000089BF08951F920F920FB60F9211242F9357
:100510008F939F93839B02C023E001C020E0829BC6
:1005200002C081E028279091B602921B90FF09C07B
:100530002093B6028091B70281509270890F809308
:10054000B7029F918F912F910F900FBE0F901F9028
:100550001895F8948091B7021092B7027894089594
:10056000F8948091B702982F91709093B702789485
:1005700085950895949A9BB3907F9BBB2BB3982F3E
:1005800092959F70922B9BBB979A25E0922F9A95FC
:10059000F1F797989BB3907F9BBB9BB38F70982B81
:1005A0009BBB979A2A95F1F7979880EE8A95F1F779
:1005B000089594989BB3907F9BBB2BB3982F9295F3
:1005C0009F70922B9BBB979A25E0922F9A95F1F7FB
:1005D00097989BB3907F9BBB9BB38F70982B9BBBD3
:1005E000979A2A95F1F7979880EE8A95F1F70895F2
:1005F000979A85E08A95F1F79798089581E00E948F
:10060000D90280E29EE40197F1F708958AB38F60E2
:100610008ABB8C9A8F9A80E69AEE0197F1F78BB39A
:10062000807F8BBB8BB383608BBB9498979A95E04C
:10063000892F8A95F1F79798E0E2FEE43197F1F778
:10064000979A892F8A95F1F7979820EA3FE0F90168
:100650003197F1F7979A892F8A95F1F79798F901D1
:100660003197F1F78BB3807F8BBBD99A979A9A9584
:10067000F1F79798C9010197F1F788E20E94D90232
:100680008CE00E94D90286E00E94D9020E94FE02FC
:10069000089582E00E94D90280E29EE40197F1F77A
:1006A0000895623061F0633018F4613079F405C068
:1006B000633039F0643051F406C0805805C080546E
:1006C00003C0805701C080530E94D9020895CF9380
:1006D000DF93EC0103C00E94BA022196888188232F
:1006E000D1F7DF91CF9108952F923F924F925F9271
:1006F0006F927F928F929F92AF92BF92CF92DF9232
:10070000EF92FF920F931F93DF93CF93CDB7DEB796
:1007100064970FB6F894DEBF0FBECDBF0E94A4044D
:100720000E9406030E9493008FEF87BB84B383600F
:1007300084BB81B3837F81BB82B38C6082BB0E9408
:100740006D028D9A78944424552432011E01089438
:10075000211C311C5F9B02C00E94BC010E94B002A0
:10076000992787FD9095A92FB92F480E591E6A1E0B
:100770007B1EC301B2010E94C9000E94D2006B011E
:100780007C010E94D2004B015C018DB79EB70C9793
:100790000FB6F8949EBF0FBE8DBF0DB71EB70F5F8B
:1007A0001F4FEDB7FEB73282218289E791E0F80151
:1007B00093838283C701B60124E630E040E050E035
:1007C0000E941308F8012483358346835783C501AB
:1007D000B40124E630E040E050E00E941308F80144
:1007E00060877187828793870E9453058DB79EB774
:1007F0000C960FB6F8949EBF0FBE8DBF80E061E0EF
:100800000E945103C1010E94670380E062E00E94E0
:1008100051030E94B2006B017C010E94B2004B01A7
:100820005C01EDB7FEB73C970FB6F894FEBF0FBE64
:10083000EDBF0DB71EB70F5F1F4F3282218283E9D4
:1008400091E0F80193838283C701B60124E630E08A
:1008500040E050E00E941308F8012483358346836A
:100860005783C501B40124E630E040E050E00E9427
:100870001308F80160877187828793870E94530568
:100880008DB79EB70C960FB6F8949EBF0FBE8DBF66
:10089000C1010E946703369A80E090E00E94AD009B
:1008A00059CFDB9A85E0982F9A95F1F7DB988A95D6
:1008B000F1F70895DA9A85E0982F9A95F1F7DA988A
:1008C0008A95F1F7089580FD02C0D89801C0D89AA2
:1008D000DB9A85E0982F9A95F1F7DB988A95F1F7E6
:1008E000089520E030E055E080FD02C0D89801C0B6
:1008F000D89ADB9A45E0952F9A95F1F7DB98952FDA
:100900009A95F1F72F5F3F4F2830310511F086950A
:10091000EBCFDA9A842F8A95F1F7DA98842F8A95AB
:10092000F1F70895FC018A30910528F4E155FE4F56
:1009300080810E9471040895D39AD09AD29AD19A54
:10094000D49AD998DC9A089510BC88E089B988E1D6
:100950008AB980B5866880BDE9EBF1E004C05D9B93
:10096000FECF8CB9319680818823C9F7E4EFF1E09E
:1009700004C05D9BFECF8CB9319680818823C9F776
:10098000EFE2F2E004C05D9BFECF8CB9319680812E
:100990008823C9F7EAE6F2E004C05D9BFECF8CB97C
:1009A000319680818823C9F7E9EBF1E004C05D9BB3
:1009B000FECF8CB9319680818823C9F7E5EAF2E051
:1009C00004C05D9BFECF8CB9319680818823C9F726
:1009D00008955D9BFECF8CB980E090E00895FC0106
:1009E00004C05D9BFECF8CB9319680818823C9F706
:1009F00008955F9BFECF8CB10895582F292F5F9BE0
:100A0000FECF4CB14A30E1F04D30D1F0852F922F1E
:100A10009C01F90170E06150704008C041935F9BF8
:100A2000FECF4CB14A3041F04D3031F08E2F851B56
:100A300090E08617970794F3108220E030E002C020
:100A400021E030E0C9010895FC0188279927E89446
:100A500021912032E9F3293010F02E30C8F32B32E7
:100A600041F02D3239F4689404C00E944B05820F86
:100A7000911D219120532A30C0F31EF49095819549
:100A80009F4F0895FB01DC018D91019080190110A9
:100A9000D9F3990B08957AE0979F902D879F802D29
:100AA000910D11240895AEE0B0E0E9E5F5E00C9475
:100AB0005E080D891E8986E08C831A8309838FEF77
:100AC0009FE79E838D839E01275E3F4FCE01019657
:100AD0006F89788DA9010E9477052F813885020FD3
:100AE000131FF80110822E96E4E00C947A08ABE014
:100AF000B0E0EDE7F5E00C9450083C012B015A0101
:100B0000FC0117821682838181FD03C06FEF7FEFA6
:100B1000C6C19AE0892E1E010894211C311CF301E4
:100B20002381F20123FD859123FF81912F018823E9
:100B300009F4B2C1853239F423FD859123FF8191F7
:100B40002F01853229F490E0B3010E946A07E7CFB4
:100B5000982FFF24EE249924FFE1FF15D0F09B325B
:100B600069F09C3228F4903259F0933291F40EC01F
:100B70009D3249F0903369F441E024C052E0F52AF7
:100B800084E0F82A28C098E0F92A25C0E0E1FE2A8E
:100B900022C0F7FC29C0892F80538A3070F4F6FEFA
:100BA00005C0989C902C1124980E15C0E89CE02C50
:100BB0001124E80EF0E2FF2A0EC09E3229F4F6FC62
:100BC0006BC140E4F42A07C09C3619F450E8F52ABA
:100BD00002C0983649F4F20123FD959123FF9191CB
:100BE0002F01992309F0B8CF892F8554833018F04D
:100BF0008052833038F444E050E0A40EB51E5FE329
:100C000059830FC0933631F0933779F0933509F05B
:100C100056C020C0F5018081898342E050E0A40ED7
:100C2000B51E610101E010E012C0F501C080D18065
:100C3000F6FC03C06FEF7FEF02C0692D70E042E069
:100C400050E0A40EB51EC6010E945F078C015FE74D
:100C5000F52214C0F501C080D180F6FC03C06FEF0F
:100C60007FEF02C0692D70E042E050E0A40EB51E97
:100C7000C6010E9454078C0150E8F52AF3FE07C014
:100C80001AC080E290E0B3010E946A07EA948E2DB8
:100C900090E008171907A8F30EC0F601F7FC85913C
:100CA000F7FE81916F0190E0B3010E946A07E110A5
:100CB000EA94015010400115110579F7EAC0943605
:100CC00011F0993669F5F7FE08C0F50120813181F0
:100CD0004281538184E090E00AC0F50180819181D6
:100CE0009C01442737FD4095542F82E090E0A80EE8
:100CF000B91E9FE6F92257FF09C0509540953095DF
:100D000021953F4F4F4F5F4FE0E8FE2ACA01B901DE
:100D1000A1012AE030E00E949607D82ED21840C0E8
:100D2000953729F41F2D1F7E2AE030E01DC01F2DAE
:100D3000197F9F3661F0903720F4983509F0ACC0E8
:100D40000FC0903739F0983709F0A6C004C028E0EA
:100D500030E00AC0106114FD146020E130E004C0EE
:100D600014FD166020E132E017FF08C0F501608134
:100D700071818281938144E050E008C0F501808157
:100D80009181BC0180E090E042E050E0A40EB51EED
:100D9000A1010E949607D82ED2188FE7F82EF122D3
:100DA000F6FE0BC05EEFF522D91438F4F4FE07C04E
:100DB000F2FC05C08FEEF82202C01D2D01C0192DD6
:100DC000F4FE0DC0FE01ED0DF11D8081803319F49C
:100DD00099EEF92208C01F5FF2FE05C003C08F2DF7
:100DE000867809F01F5F0F2DF3FC14C0F0FE0FC0D2
:100DF0001E1510F09D2C0BC09D2C9E0C911A1E2DC3
:100E000006C080E290E0B3010E946A071F5F1E15D2
:100E1000C0F304C01E1510F4E11A01C0EE2404FF53
:100E20000FC080E390E0B3010E946A0702FF1DC07B
:100E300001FD03C088E790E00EC088E590E00BC09C
:100E4000802F867891F001FF02C08BE201C080E222
:100E5000F7FC8DE290E0B3010E946A0706C080E3D0
:100E600090E0B3010E946A079A94D914C0F3DA940F
:100E7000F101ED0DF11D808190E0B3010E946A0740
:100E8000DD20A9F706C080E290E0B3010E946A0766
:100E9000EA94EE20C1F743CEF30166817781CB015E
:100EA0002B96E2E10C946C08FC01059061507040B7
:100EB0000110D8F7809590958E0F9F1F0895FC0123
:100EC0006150704001900110D8F7809590958E0F79
:100ED0009F1F08950F931F93CF93DF938C01EB0116
:100EE0008B8181FF1BC082FF0DC02E813F818C81D1
:100EF0009D812817390764F4E881F9810193F9830A
:100F0000E88306C0E885F985802F0995892B31F49F
:100F10008E819F8101969F838E8302C00FEF1FEF0A
:100F2000C801DF91CF911F910F910895FA01AA276F
:100F3000283051F1203181F1E8946F936E7F6E5F1C
:100F40007F4F8F4F9F4FAF4FB1E03ED0B4E03CD0CA
:100F5000670F781F891F9A1FA11D680F791F8A1FAD
:100F6000911DA11D6A0F711D811D911DA11D20D014
:100F700009F468943F912AE0269F11243019305DCE
:100F80003193DEF6CF010895462F4770405D4193BF
:100F9000B3E00FD0C9F7F6CF462F4F70405D4A330C
:100FA00018F0495D31FD4052419302D0A9F7EACFD4
:100FB000B4E0A6959795879577956795BA95C9F703
:100FC00000976105710508959B01AC010A2E0694F6
:100FD0005795479537952795BA95C9F7620F731FAF
:100FE000841F951FA01D0895629FD001739FF0017B
:100FF000829FE00DF11D649FE00DF11D929FF00DA9
:10100000839FF00D749FF00D659FF00D9927729FDF
:10101000B00DE11DF91F639FB00DE11DF91FBD016A
:10102000CF011124089597FB092E05260ED057FDF8
:1010300004D014D00AD0001C38F450954095309557
:1010400021953F4F4F4F5F4F0895F6F7909580954C
:10105000709561957F4F8F4F9F4F0895A1E21A2E93
:10106000AA1BBB1BFD010DC0AA1FBB1FEE1FFF1F4C
:10107000A217B307E407F50720F0A21BB30BE40B9C
:10108000F50B661F771F881F991F1A9469F76095E3
:101090007095809590959B01AC01BD01CF0108959D
:1010A0002F923F924F925F926F927F928F929F9278
:1010B000AF92BF92CF92DF92EF92FF920F931F9366
:1010C000CF93DF93CDB7DEB7CA1BDB0B0FB6F89417
:1010D000DEBF0FBECDBF09942A88398848885F8457
:1010E0006E847D848C849B84AA84B984C884DF80C8
:1010F000EE80FD800C811B81AA81B981CE0FD11DAC
:101100000FB6F894DEBF0FBECDBFED010895F89481
:02111000FFCF0F
:101112002569000100F4015447005447204156520A
:101122002054657374626F6172642076302E302EA3
:10113200310A004C45443100464554004C43445763
:101142003100547970652E2E2E0A004C43445732DA
:1011520000434C4B005354520037005479706520C1
:1011620061206E756D626572203C2031302E2E2E0C
:101172000A0048454C5000417661696C61626C65B9
:1011820020636F6D6D616E64733A0A205447202D9F
:10119200207072696E742044657669636520616EA1
:1011A200642056657273696F6E20496E666F0A20FD
:1011B2004C454478202D205475726E206F6E2F6F2F
:1011C2006666204C4544206E756D62657220780A11
:1011D2000909094C43445778202D2050726F6D70D5
:1011E2007420666F72205465787420746F20777251
:1011F200697465206F6E204C696E652078206F6E71
:10120200204C43440A0A2048454C50202D2050725D
:10121200696E74207468697320496E666F0A003FB4
:10122200055E4F656B7B0D7F6F536F6C6C3A2025AB
:101232006C692C256C69205620202020202020203B
:1012420020200041637475616C3A20256C692C255D
:101252006C69205620202020202020202020003FC2
:10126200055E4F656B7B0D7F6F0A232323232323A8
:10127200232323232323232323232323232323233C
:10128200232323232323232323232323232323232C
:10129200232323232323232323232323232323231C
:1012A200232323000A2320202020202020204469F9
:1012B2006769616C20726567756C61746564205042
:1012C2006F776572737570706C792030202D2033C2
:1012D2003056203241202020202020202023000AC6
:1012E2002320202020202020205472792048454CA1
:1012F2005020666F72206120636F6D6D616E642095
:1013020073657420202020202020202020202020EF
:10131200202020202020202023000A2320202020FB
:1013220020202020627920546F6269617320477205
:10133200757373656E6D657965722020202020209B
:10134200202020202020202020202020202020209B
:0813520020202023000A000006
:00000001FF
