:100000000C942A000C9447000C9447000C94470071
:100010000C94AB000C9447000C9447000C944700E0
:100020000C9447000C9447000C94DB020C9447009E
:100030000C9447000C9447000C9447000C94470024
:100040000C9449000C9447000C9447000C94470012
:100050000C94470011241FBECFE5D8E0DEBFCDBF12
:1000600012E0A0E6B0E0E6E2F3E102C005900D92F6
:10007000AE3AB107D9F712E0AEEAB2E001C01D9284
:10008000AE3CB107E1F70E94F4030C9491090C9483
:1000900000001F920F920FB60F9211242F933F93DF
:1000A0004F935F938F939F93AF93BF93389B23C0DE
:1000B0008091B8029091B902A091BA02B091BB02AE
:1000C00024B135B140E050E0280F391F4A1F5B1FB3
:1000D0002093B8023093B9024093BA025093BB0206
:1000E0008091BC029091BD0201969093BD028093D5
:1000F000BC02389822C08091B0029091B102A091C8
:10010000B202B091B30224B135B140E050E0280F03
:10011000391F4A1F5B1F2093B0023093B1024093F6
:10012000B2025093B3028091B4029091B50201964D
:100130009093B5028093B402389A369ABF91AF91EA
:100140009F918F915F914F913F912F910F900FBE93
:100150000F901F9018951F920F920FB60F921124B7
:10016000EF92FF920F931F932F933F934F935F93C1
:100170006F937F938F939F93AF93BF93EF93FF936F
:100180008091B4029091B502892B11F16091B00277
:100190007091B1028091B2029091B3022091B402A9
:1001A0003091B502442737FD4095542F0E941D0918
:1001B0003093AF022093AE021092B0021092B102BF
:1001C0001092B2021092B3021092B5021092B402D1
:1001D0008091BC029091BD02892B11F16091B8020F
:1001E0007091B9028091BA029091BB022091BC0239
:1001F0003091BD02442737FD4095542F0E941D09C0
:100200003093B7022093B6021092B8021092B9024E
:100210001092BA021092BB021092BD021092BC0260
:100220006091AE027091AF02882777FD8095982F7C
:1002300024EE3CE040E050E00E94FE08E090C00266
:10024000F090C1020091C2021091C3022FEF33E07F
:1002500040E050E00E941D092E193F09400B510B50
:10026000C90137FF03C0909581959F4F029764F1B4
:1002700022303105410551056CF08091BE0290910C
:10028000BF021816190634F48091BE029091BF0285
:1002900001970CC08091BE029091BF028C5E93408A
:1002A0009CF48091BE029091BF0201969093BF0290
:1002B0008093BE0288BB2BB380709370892F990FF7
:1002C000990B2C7F282B2BBB1092C9021092C802CD
:1002D000FF91EF91BF91AF919F918F917F916F911E
:1002E0005F914F913F912F911F910F91FF90EF9050
:1002F0000F900FBE0F901F9018959093BF028093A0
:10030000BE0288BB807093702BB3892F990F990B15
:100310002C7F282B2BBB089587B1846487B986B1C5
:100320008F6886B98FE085BD8FEF83BD89B7806800
:1003300089BF369A08952091AE023091AF02C9016B
:1003400008952091B6023091B702C90108956091D5
:10035000AE027091AF02882777FD8095982F24EE2A
:100360003CE040E050E00E94FE082FEF33E040E028
:1003700050E00E941D09CA01B90108956091B602BA
:100380007091B702882777FD8095982F28EC30E090
:1003900040E050E00E94FE0828EE33E040E050E0EC
:1003A0000E941D09CA01B90108956093C0027093AB
:1003B000C1028093C2029093C30208952091C002AB
:1003C0003091C1024091C2025091C302B901CA01E9
:1003D00008956093C4027093C5028093C6029093FF
:1003E000C70208952091C4023091C5024091C6020F
:1003F0005091C702B901CA0108950F931F93DF936B
:10040000CF93CDB7DEB7A4970FB6F894DEBF0FBE7B
:10041000CDBF8E010D5F1F4FC80161E10E9407062D
:10042000892B09F09BC0C80160E670E00E944C0671
:10043000009719F483E690E08FC0C8016CE770E084
:100440000E944C06009731F48E9A80B390E489277D
:1004500082BB5CC0C80161E870E00E944C06009756
:1004600029F4D79A89B380588BBB50C0C80165E87E
:1004700070E00E944C06009781F48BE890E00E94A7
:10048000F9058E010C5E1F4FC80161E10E9407064D
:10049000892BD1F780E061E016C0C80164E970E003
:1004A0000E944C060097A9F48BE890E00E94F905A1
:1004B0008E010C5E1F4FC80161E10E940706892B67
:1004C000D1F780E062E00E94D103C8010E94E703F7
:1004D00045C0C8016AE970E00E944C06009719F413
:1004E0000E94860313C0C80162EA70E00E944C06B5
:1004F000009719F40E945B0509C0C80166EA70E024
:100500000E944C06009721F40E946405C80124C093
:10051000C8016AEA70E00E944C06009799F48CEAE0
:1005200090E00E94F9058E010F5F1F4FC80162E045
:100530000E940706892BD1F7C8010E942E060E944F
:100540009C050CC0CE01039663EC70E00E944C0643
:10055000009721F488EC90E00E94F905A4960FB66C
:10056000F894DEBF0FBECDBFCF91DF911F910F91E9
:1005700008959E9B02C023E001C020E0989B02C02A
:1005800093E001C090E09F9B02C081E02827999BE7
:1005900002C081E098272093CA029093CB02109268
:1005A000CD021092CC028BE083BF8AEF8CBF89B75B
:1005B000826089BF08951F920F920FB60F92112487
:1005C0002F933F934F938F939F939E9B02C033E053
:1005D00001C030E0989B02C043E001C040E09F9B17
:1005E00002C081E03827999B02C081E048279091A2
:1005F000CA02931B2091CB02241B90FF09C03093A9
:10060000CA028091CD0281509270890F8093CD02F1
:1006100020FF09C04093CB028091CC028150227010
:10062000820F8093CC029F918F914F913F912F9198
:100630000F900FBE0F901F901895F8948091CD02E7
:100640001092CD0278940895F8948091CC02982F5E
:1006500091709093CC02789485950895F894809148
:10066000CD029091CD0293709093CD0278948595B0
:1006700085950895929A92B39F7092BB22B3982F5A
:10068000907F922B92BB939A2AE0922F9A95F1F742
:10069000939892B39F7092BB92B38295807F982B70
:1006A00092BB939A2A95F1F7939880EE8A95F1F789
:1006B0000895929892B39F7092BB22B3982F907F27
:1006C000922B92BB939A2AE0922F9A95F1F79398E6
:1006D00092B39F7092BB92B38295807F982B92BB0E
:1006E000939A2A95F1F7939880EE8A95F1F70895F9
:1006F000939A8AE08A95F1F79398089581E00E9491
:10070000590380E29EE40197F1F7089581B3806F69
:1007100081BB8B9A8A9A80E69AEE0197F1F782B3B1
:100720008F7082BB82B3806382BB9298939A9AE067
:10073000892F8A95F1F79398E0E2FEE43197F1F77B
:10074000939A892F8A95F1F7939820EA3FE0F9016F
:100750003197F1F7939A892F8A95F1F79398F901D8
:100760003197F1F782B38F7082BB959A939A9A95DD
:10077000F1F79398C9010197F1F788E20E945903B4
:100780008CE00E94590386E00E9459030E947E0378
:10079000089582E00E94590380E29EE40197F1F7F8
:1007A0000895623061F0633018F4613079F405C067
:1007B000633039F0643051F406C0805805C080546D
:1007C00003C0805701C080530E9459030895CF93FE
:1007D000DF93EC0103C00E943A03219688818823AD
:1007E000D1F7DF91CF9108952F923F924F925F9270
:1007F0006F927F928F929F92AF92BF92CF92DF9231
:10080000EF92FF920F931F93DF93CF93CDB7DEB795
:10081000A8970FB6F894DEBF0FBECDBF0E94AE05FD
:100820000E948C018FEF87BB8AB383608ABB84B33D
:100830008C7384BB85B3836C85BB0E94B9028AB379
:10084000806C8ABB8BB3806C8BBB7894442455241A
:1008500032018824992454015F9B02C00E94FD014B
:100860000E942E03082F112707FD10950E942403D4
:10087000282E332427FC3094C101802B912B892B07
:1008800059F3023011051CF004E610E006C08FEFAA
:100890000F3F180714F40CE91FEFC801AA2797FDB2
:1008A000A095BA2F480E591E6A1E7B1E77FE04C003
:1008B0004424552432010FC095EE49169CE0590698
:1008C00090E0690690E0790634F034EE432E3CE087
:1008D000532E612C712CC301B2010E94D5010E94DC
:1008E000A7016B017C01EDB7FEB774970FB6F894C2
:1008F000FEBF0FBEEDBF0DB71EB70F5F1F4F81E0EC
:1009000090E08C0F9D1F928381838AE791E0F8012C
:1009100093838283C301B20124E630E040E050E0DB
:100920000E941D09F8012483358346835783C30140
:10093000B20124E630E040E050E00E941D09F801D9
:100940006087718782879387C701B60124E630E00C
:1009500040E050E00E941D09F80124873587468752
:100960005787C701B60124E630E040E050E00E941E
:100970001D09F801608B718B828B938B0E945D0641
:100980008DB79EB744960FB6F8949EBF0FBE8DBF2D
:10099000CE0101960E94F90592E02916310424F057
:1009A00024E6222E312C09C0EFEF2E16EFEF3E0683
:1009B00024F49CE9292E9FEF392EC101AA2797FD27
:1009C000A095BA2F880E991EAA1EBB1EB7FE04C0A2
:1009D0008824992454010BC0F9EC8F169104A104CA
:1009E000B1042CF088EC882E912CA12CB12CC501DF
:1009F000B4010E94E9010E94BE016B017C018DB728
:100A00009EB744970FB6F8949EBF0FBE8DBF0DB72B
:100A10001EB70F5F1F4F85E190E08C0F9D1FEDB754
:100A2000FEB79283818388E991E0F8019383828302
:100A3000C501B40124E630E040E050E00E941D0909
:100A4000F8012483358346835783C501B40124E626
:100A500030E040E050E00E941D09F8016087718796
:100A600082879387C701B60124E630E040E050E07A
:100A70000E941D09F8012487358746875787C701DB
:100A8000B60124E630E040E050E00E941D09F80184
:100A9000608B718B828B938B0E945D068DB79EB7A6
:100AA00044960FB6F8949EBF0FBE8DBFCE014596FB
:100AB0000E94F905D1CEDB9A85E0982F9A95F1F73F
:100AC000DB988A95F1F70895DA9A85E0982F9A9540
:100AD000F1F7DA988A95F1F7089580FD02C0D89869
:100AE00001C0D89ADB9A85E0982F9A95F1F7DB98A8
:100AF0008A95F1F7089520E030E055E080FD02C0CE
:100B0000D89801C0D89ADB9A45E0952F9A95F1F7CD
:100B1000DB98952F9A95F1F72F5F3F4F28303105DD
:100B200011F08695EBCFDA9A842F8A95F1F7DA984F
:100B3000842F8A95F1F70895FC018A30910528F4F5
:100B4000EA54FE4F80810E947B050895D39AD09A83
:100B5000D29AD19AD49AD998DC9A089510BC88E098
:100B600089B988E18AB980B5866880BDE0ECF1E09A
:100B700004C05D9BFECF8CB9319680818823C9F774
:100B8000EBEFF1E004C05D9BFECF8CB93196808124
:100B90008823C9F7E6E3F2E004C05D9BFECF8CB981
:100BA000319680818823C9F7E1E7F2E004C05D9BBC
:100BB000FECF8CB9319680818823C9F7E0ECF1E053
:100BC00004C05D9BFECF8CB9319680818823C9F724
:100BD000ECEAF2E004C05D9BFECF8CB931968081D7
:100BE0008823C9F708955D9BFECF8CB980E090E023
:100BF0000895FC0104C05D9BFECF8CB931968081C5
:100C00008823C9F708955F9BFECF8CB10895582FB4
:100C1000292F5F9BFECF4CB14A30E1F04D30D1F02F
:100C2000852F922F9C01F90170E06150704008C03F
:100C300041935F9BFECF4CB14A3041F04D3031F0D3
:100C40008E2F851B90E08617970794F3108220E083
:100C500030E002C021E030E0C9010895FC0188279E
:100C60009927E89421912032E9F3293010F02E30B1
:100C7000C8F32B3241F02D3239F4689404C00E943D
:100C80005506820F911D219120532A30C0F31EF486
:100C9000909581959F4F0895FB01DC018D91019006
:100CA00080190110D9F3990B08957AE0979F902D40
:100CB000879F802D910D11240895AEE0B0E0E3E60A
:100CC000F6E00C9468090D891E8986E08C831A83EE
:100CD00009838FEF9FE79E838D839E01275E3F4FA1
:100CE000CE0101966F89788DA9010E9481062F811E
:100CF0003885020F131FF80110822E96E4E00C9441
:100D00008409ABE0B0E0E7E8F6E00C945A093C0156
:100D10002B015A01FC0117821682838181FD03C0D9
:100D20006FEF7FEFC6C19AE0892E1E010894211C47
:100D3000311CF3012381F20123FD859123FF819171
:100D40002F01882309F4B2C1853239F423FD85913E
:100D500023FF81912F01853229F490E0B3010E9495
:100D60007408E7CF982FFF24EE249924FFE1FF15A4
:100D7000D0F09B3269F09C3228F4903259F09332D3
:100D800091F40EC09D3249F0903369F441E024C0E3
:100D900052E0F52A84E0F82A28C098E0F92A25C014
:100DA000E0E1FE2A22C0F7FC29C0892F80538A3057
:100DB00070F4F6FE05C0989C902C1124980E15C076
:100DC000E89CE02C1124E80EF0E2FF2A0EC09E32CF
:100DD00029F4F6FC6BC140E4F42A07C09C3619F4F0
:100DE00050E8F52A02C0983649F4F20123FD9591A6
:100DF00023FF91912F01992309F0B8CF892F8554B2
:100E0000833018F08052833038F444E050E0A40E70
:100E1000B51E5FE359830FC0933631F0933779F0F5
:100E2000933509F056C020C0F5018081898342E0E6
:100E300050E0A40EB51E610101E010E012C0F50102
:100E4000C080D180F6FC03C06FEF7FEF02C0692D38
:100E500070E042E050E0A40EB51EC6010E94690891
:100E60008C015FE7F52214C0F501C080D180F6FC4B
:100E700003C06FEF7FEF02C0692D70E042E050E0E9
:100E8000A40EB51EC6010E945E088C0150E8F52A2A
:100E9000F3FE07C01AC080E290E0B3010E9474081C
:100EA000EA948E2D90E008171907A8F30EC0F601FA
:100EB000F7FC8591F7FE81916F0190E0B3010E94EC
:100EC0007408E110EA94015010400115110579F7FA
:100ED000EAC0943611F0993669F5F7FE08C0F501BD
:100EE000208131814281538184E090E00AC0F50184
:100EF000808191819C01442737FD4095542F82E0E9
:100F000090E0A80EB91E9FE6F92257FF09C0509540
:100F10004095309521953F4F4F4F5F4FE0E8FE2AB7
:100F2000CA01B901A1012AE030E00E94A008D82E30
:100F3000D21840C0953729F41F2D1F7E2AE030E0DB
:100F40001DC01F2D197F9F3661F0903720F4983512
:100F500009F0ACC00FC0903739F0983709F0A6C03F
:100F600004C028E030E00AC0106114FD146020E1E4
:100F700030E004C014FD166020E132E017FF08C025
:100F8000F501608171818281938144E050E008C065
:100F9000F50180819181BC0180E090E042E050E069
:100FA000A40EB51EA1010E94A008D82ED2188FE76A
:100FB000F82EF122F6FE0BC05EEFF522D91438F4BC
:100FC000F4FE07C0F2FC05C08FEEF82202C01D2D12
:100FD00001C0192DF4FE0DC0FE01ED0DF11D808143
:100FE000803319F499EEF92208C01F5FF2FE05C0A4
:100FF00003C08F2D867809F01F5F0F2DF3FC14C0FE
:10100000F0FE0FC01E1510F09D2C0BC09D2C9E0CE9
:10101000911A1E2D06C080E290E0B3010E94740870
:101020001F5F1E15C0F304C01E1510F4E11A01C0A5
:10103000EE2404FF0FC080E390E0B3010E94740827
:1010400002FF1DC001FD03C088E790E00EC088E5E7
:1010500090E00BC0802F867891F001FF02C08BE2F8
:1010600001C080E2F7FC8DE290E0B3010E947408B9
:1010700006C080E390E0B3010E9474089A94D914EA
:10108000C0F3DA94F101ED0DF11D808190E0B30120
:101090000E947408DD20A9F706C080E290E0B30149
:1010A0000E947408EA94EE20C1F743CEF3016681F2
:1010B0007781CB012B96E2E10C947609FC01059037
:1010C000615070400110D8F7809590958E0F9F1F4A
:1010D0000895FC016150704001900110D8F780958F
:1010E00090958E0F9F1F08950F931F93CF93DF93BB
:1010F0008C01EB018B8181FF1BC082FF0DC02E8113
:101100003F818C819D812817390764F4E881F9813A
:101110000193F983E88306C0E885F985802F099556
:10112000892B31F48E819F8101969F838E8302C02B
:101130000FEF1FEFC801DF91CF911F910F9108951D
:10114000FA01AA27283051F1203181F1E8946F93F8
:101150006E7F6E5F7F4F8F4F9F4FAF4FB1E03ED09E
:10116000B4E03CD0670F781F891F9A1FA11D680F3C
:10117000791F8A1F911DA11D6A0F711D811D911D6F
:10118000A11D20D009F468943F912AE0269F1124E4
:101190003019305D3193DEF6CF010895462F477048
:1011A000405D4193B3E00FD0C9F7F6CF462F4F70A3
:1011B000405D4A3318F0495D31FD4052419302D001
:1011C000A9F7EACFB4E0A6959795879577956795A7
:1011D000BA95C9F700976105710508959B01AC01A7
:1011E0000A2E06945795479537952795BA95C9F7CE
:1011F000620F731F841F951FA01D0895629FD00169
:10120000739FF001829FE00DF11D649FE00DF11DC1
:10121000929FF00D839FF00D749FF00D659FF00D70
:101220009927729FB00DE11DF91F639FB00DE11D5D
:10123000F91FBD01CF011124089597FB092E052642
:101240000ED057FD04D014D00AD0001C38F45095AD
:101250004095309521953F4F4F4F5F4F0895F6F7DA
:1012600090958095709561957F4F8F4F9F4F089512
:10127000A1E21A2EAA1BBB1BFD010DC0AA1FBB1F9A
:10128000EE1FFF1FA217B307E407F50720F0A21B0C
:10129000B30BE40BF50B661F771F881F991F1A9479
:1012A00069F760957095809590959B01AC01BD01A3
:1012B000CF0108952F923F924F925F926F927F924B
:1012C0008F929F92AF92BF92CF92DF92EF92FF9256
:1012D0000F931F93CF93DF93CDB7DEB7CA1BDB0B02
:1012E0000FB6F894DEBF0FBECDBF09942A883988A7
:1012F00048885F846E847D848C849B84AA84B984AE
:10130000C884DF80EE80FD800C811B81AA81B981B9
:10131000CE0FD11D0FB6F894DEBF0FBECDBFED01CD
:061320000895F894FFCFD0
:101326005447005447204156522054657374626FE7
:101336006172642076302E302E310A004C454431DD
:1013460000464554004C4344573100547970652E8D
:101356002E2E0A004C43445732004C4344494E4912
:101366005400434C4B005354520037005479706577
:101376002061206E756D626572203C2031302E2E04
:101386002E0A0048454C5000417661696C61626CDA
:101396006520636F6D6D616E64733A0A2054472051
:1013A6002D207072696E74204465766963652061CC
:1013B6006E642056657273696F6E20496E666F0A99
:1013C600204C454478202D205475726E206F6E2F68
:1013D6006F6666204C4544206E756D626572207896
:1013E6000A0909094C43445778202D2050726F6D25
:1013F600707420666F72205465787420746F20773D
:1014060072697465206F6E204C696E652078206F56
:101416006E204C43440A0A2048454C50202D20504B
:1014260072696E74207468697320496E666F0A006B
:101436003F055E4F656B7B0D7F6F553A20256C69C6
:101446002C256C695B256C692C256C695D20562002
:101456002020202020200A00493A20256C692C25CE
:101466006C695B256C692C256C695D204120202008
:10147600202020200A003F055E4F656B7B0D7F6FA5
:101486000A2323232323232323232323232323233F
:101496002323232323232323232323232323232316
:1014A6002323232323232323232323232323232306
:1014B60023232323232323232323000A232020203B
:1014C600202020202044696769616C207265677559
:1014D6006C6174656420506F776572737570706C9B
:1014E600792030202D2033305620324120202020F4
:1014F6002020202023000A23202020202020202016
:101506005472792048454C5020666F7220612063E2
:101516006F6D6D616E64207365742020202020201D
:1015260020202020202020202020202020202023B2
:10153600000A232020202020202020627920546FBA
:1015460062696173204772757373656E6D6579653F
:101556007220202020202020202020202020202033
:0E1566002020202020202020202023000A000A
:00000001FF
